{
  "contracts/Resolver.sol": {
    "Resolver": {
      "abi": [
        {
          "anonymous": false,
          "inputs": [
            {
              "indexed": true,
              "internalType": "address",
              "name": "previousOwner",
              "type": "address"
            },
            {
              "indexed": true,
              "internalType": "address",
              "name": "newOwner",
              "type": "address"
            }
          ],
          "name": "OwnershipTransferred",
          "type": "event"
        },
        {
          "inputs": [
            {
              "internalType": "uint256",
              "name": "_vaultId",
              "type": "uint256"
            },
            {
              "internalType": "uint256",
              "name": "_orderId",
              "type": "uint256"
            },
            {
              "internalType": "address",
              "name": "_fromToken",
              "type": "address"
            },
            {
              "internalType": "address",
              "name": "_toToken",
              "type": "address"
            },
            {
              "internalType": "uint256",
              "name": "_fromAmount",
              "type": "uint256"
            }
          ],
          "name": "checker",
          "outputs": [
            {
              "internalType": "bool",
              "name": "",
              "type": "bool"
            },
            {
              "internalType": "bytes",
              "name": "",
              "type": "bytes"
            }
          ],
          "stateMutability": "view",
          "type": "function"
        },
        {
          "inputs": [
            {
              "internalType": "uint256",
              "name": "",
              "type": "uint256"
            }
          ],
          "name": "connectorTokens",
          "outputs": [
            {
              "internalType": "address",
              "name": "",
              "type": "address"
            }
          ],
          "stateMutability": "view",
          "type": "function"
        },
        {
          "inputs": [
            {
              "internalType": "contract IERC20",
              "name": "_token",
              "type": "address"
            },
            {
              "internalType": "uint256",
              "name": "_amount",
              "type": "uint256"
            }
          ],
          "name": "emergencyWithdraw",
          "outputs": [],
          "stateMutability": "nonpayable",
          "type": "function"
        },
        {
          "inputs": [
            {
              "internalType": "address",
              "name": "_fromToken",
              "type": "address"
            },
            {
              "internalType": "address",
              "name": "_toToken",
              "type": "address"
            },
            {
              "internalType": "uint256",
              "name": "_amountIn",
              "type": "uint256"
            }
          ],
          "name": "findBestPathExactIn",
          "outputs": [
            {
              "internalType": "address",
              "name": "",
              "type": "address"
            },
            {
              "internalType": "address[]",
              "name": "",
              "type": "address[]"
            },
            {
              "internalType": "uint256",
              "name": "",
              "type": "uint256"
            }
          ],
          "stateMutability": "view",
          "type": "function"
        },
        {
          "inputs": [
            {
              "internalType": "address",
              "name": "_fromToken",
              "type": "address"
            },
            {
              "internalType": "address",
              "name": "_toToken",
              "type": "address"
            },
            {
              "internalType": "uint256",
              "name": "_amountOut",
              "type": "uint256"
            }
          ],
          "name": "findBestPathExactOut",
          "outputs": [
            {
              "internalType": "address",
              "name": "",
              "type": "address"
            },
            {
              "internalType": "address[]",
              "name": "",
              "type": "address[]"
            },
            {
              "internalType": "uint256",
              "name": "",
              "type": "uint256"
            }
          ],
          "stateMutability": "view",
          "type": "function"
        },
        {
          "inputs": [
            {
              "internalType": "address",
              "name": "_fromToken",
              "type": "address"
            },
            {
              "internalType": "address",
              "name": "_toToken",
              "type": "address"
            }
          ],
          "name": "getAllPaths",
          "outputs": [
            {
              "internalType": "address[4][]",
              "name": "paths",
              "type": "address[4][]"
            },
            {
              "internalType": "uint256",
              "name": "pathCount",
              "type": "uint256"
            }
          ],
          "stateMutability": "view",
          "type": "function"
        },
        {
          "inputs": [
            {
              "internalType": "contract IUniswapV2Router02",
              "name": "_router",
              "type": "address"
            },
            {
              "internalType": "uint256",
              "name": "_amountOut",
              "type": "uint256"
            },
            {
              "internalType": "address[4]",
              "name": "_path",
              "type": "address[4]"
            }
          ],
          "name": "getAmountIn",
          "outputs": [
            {
              "internalType": "uint256",
              "name": "",
              "type": "uint256"
            }
          ],
          "stateMutability": "view",
          "type": "function"
        },
        {
          "inputs": [
            {
              "internalType": "contract IUniswapV2Router02",
              "name": "_router",
              "type": "address"
            },
            {
              "internalType": "uint256",
              "name": "_amountIn",
              "type": "uint256"
            },
            {
              "internalType": "address[4]",
              "name": "_path",
              "type": "address[4]"
            }
          ],
          "name": "getAmountOut",
          "outputs": [
            {
              "internalType": "uint256",
              "name": "",
              "type": "uint256"
            }
          ],
          "stateMutability": "view",
          "type": "function"
        },
        {
          "inputs": [],
          "name": "owner",
          "outputs": [
            {
              "internalType": "address",
              "name": "",
              "type": "address"
            }
          ],
          "stateMutability": "view",
          "type": "function"
        },
        {
          "inputs": [],
          "name": "renounceOwnership",
          "outputs": [],
          "stateMutability": "nonpayable",
          "type": "function"
        },
        {
          "inputs": [
            {
              "internalType": "uint256",
              "name": "",
              "type": "uint256"
            }
          ],
          "name": "routers",
          "outputs": [
            {
              "internalType": "contract IUniswapV2Router02",
              "name": "",
              "type": "address"
            }
          ],
          "stateMutability": "view",
          "type": "function"
        },
        {
          "inputs": [
            {
              "internalType": "contract IUniswapV2Router02",
              "name": "_router",
              "type": "address"
            },
            {
              "internalType": "uint256",
              "name": "_amountIn",
              "type": "uint256"
            },
            {
              "internalType": "uint256",
              "name": "_amountOutMin",
              "type": "uint256"
            },
            {
              "internalType": "address[]",
              "name": "_path",
              "type": "address[]"
            },
            {
              "internalType": "address",
              "name": "_to",
              "type": "address"
            },
            {
              "internalType": "uint256",
              "name": "_deadline",
              "type": "uint256"
            }
          ],
          "name": "swapExactIn",
          "outputs": [
            {
              "internalType": "uint256[]",
              "name": "",
              "type": "uint256[]"
            }
          ],
          "stateMutability": "nonpayable",
          "type": "function"
        },
        {
          "inputs": [
            {
              "internalType": "address",
              "name": "newOwner",
              "type": "address"
            }
          ],
          "name": "transferOwnership",
          "outputs": [],
          "stateMutability": "nonpayable",
          "type": "function"
        }
      ],
      "evm": {
        "bytecode": {
          "linkReferences": {},
          "object": "61014060405273a5e0829caced8ffdd4de3c43696c57f7d7a678ff6080908152731b02da8cb0d097eb8d57a175b88c7d8b4799750660a0527394930a328162957ff1dd48900af67b5439336cbd60c05273c0788a3ad43d79aa53b09c2eacc313a787d1d60760e05273a102072a4c07f06ec3b4900fdc4c7b80b6c5742961010052733a1d87f206d12415f5b0a33e786967680aab4f6d61012052620000a99060019060066200020c565b50604080516101208101825260008152738f3cf7ad23cd3cadbd9735aff958023239c6a0636020820152732791bca1f2de4661ed88a30c99a7a9449aa8417491810191909152730d500b1d8e8ef31e21c99d1db9a6444d3adf12706060820152737ceb23fd6bc0add59e62ac25578270cff1b9f619608082015273c2132d05d31c914a87c6611c10748aeb04b58e8f60a082015273831753dd7087cac61ab5644b308642cc1c33dc1360c082015273a3fa99a148fa48d14ed51d610c367c61876997f160e0820152731bfd67037b42cf73acf2047067bd4f2c47d9bfd66101008201526200019c9060029060096200020c565b50348015620001aa57600080fd5b50620001b633620001bc565b6200028d565b600080546001600160a01b038381166001600160a01b0319831681178455604051919092169283917f8be0079c531659141344cd1fd0a4f28419497f9722a3daafe3b4186f6b6457e09190a35050565b82805482825590600052602060002090810192821562000264579160200282015b828111156200026457825182546001600160a01b0319166001600160a01b039091161782556020909201916001909101906200022d565b506200027292915062000276565b5090565b5b8082111562000272576000815560010162000277565b611ebf806200029d6000396000f3fe608060405234801561001057600080fd5b50600436106100cf5760003560e01c80638da5cb5b1161008c578063d070166d11610066578063d070166d146101bb578063e34ca65d146101dc578063e82cc3a2146101fd578063f2fde38b1461021057600080fd5b80638da5cb5b1461018457806395ccea6714610195578063bd646432146101a857600080fd5b806319b64015146100d45780634c4f4d25146101045780634e9c11181461012557806365c53d4214610138578063715018a61461015a578063892e20f414610164575b600080fd5b6100e76100e23660046116a9565b610223565b6040516001600160a01b0390911681526020015b60405180910390f35b61011761011236600461172e565b61024d565b6040519081526020016100fb565b6100e76101333660046116a9565b61052b565b61014b6101463660046117d3565b61053b565b6040516100fb93929190611858565b610162610893565b005b6101776101723660046118b0565b6108d2565b6040516100fb9190611990565b6000546001600160a01b03166100e7565b6101626101a33660046119d4565b610a06565b61014b6101b63660046117d3565b610a5a565b6101ce6101c9366004611a00565b610b68565b6040516100fb929190611a39565b6101ef6101ea366004611ab0565b610f42565b6040516100fb929190611b5a565b61011761020b36600461172e565b610fbd565b61016261021e366004611b75565b611292565b6002818154811061023357600080fd5b6000918252602090912001546001600160a01b0316905081565b606081810151600091906001600160a01b031661039b5760408301516001600160a01b0316610301576040805160028082526060820183529091602083019080368337505084518251929350918391506000906102ac576102ac611b92565b6001600160a01b03929092166020928302919091018201528301518151829060019081106102dc576102dc611b92565b60200260200101906001600160a01b031690816001600160a01b031681525050610489565b6040805160038082526080820190925290602082016060803683375050845182519293509183915060009061033857610338611b92565b6001600160a01b039290921660209283029190910182015283015181518290600190811061036857610368611b92565b6001600160a01b03909216602092830291909101909101528260026020020151816002815181106102dc576102dc611b92565b60408051600480825260a082019092529060208201608080368337505084518251929350918391506000906103d2576103d2611b92565b6001600160a01b039290921660209283029190910182015283015181518290600190811061040257610402611b92565b6001600160a01b039092166020928302919091019091015282600260200201518160028151811061043557610435611b92565b6001600160a01b039092166020928302919091019091015282600360200201518160038151811061046857610468611b92565b60200260200101906001600160a01b031690816001600160a01b0316815250505b6040516307c0329d60e21b81526001600160a01b03861690631f00ca74906104b79087908590600401611ba8565b600060405180830381865afa9250505080156104f557506040513d6000823e601f3d908101601f191682016040526104f29190810190611bc1565b60015b61050457600019915050610524565b8060008151811061051757610517611b92565b6020026020010151925050505b9392505050565b6001818154811061023357600080fd5b6000606081808061054a61168b565b6000806105578b8b610b68565b9150915060005b6001548110156106475760005b828110156106345760006105c96001848154811061058b5761058b611b92565b9060005260206000200160009054906101000a90046001600160a01b03168d8785815181106105bc576105bc611b92565b6020026020010151610fbd565b90508781111561062157809750600183815481106105e9576105e9611b92565b60009182526020909120015485516001600160a01b03909116975085908390811061061657610616611b92565b602002602001015195505b508061062c81611c5d565b91505061056b565b508061063f81611c5d565b91505061055e565b506060838101516001600160a01b03166107925760408401516001600160a01b03166106f8576040805160028082526060820183529091602083019080368337505085518251929350918391506000906106a3576106a3611b92565b6001600160a01b03929092166020928302919091018201528401518151829060019081106106d3576106d3611b92565b60200260200101906001600160a01b031690816001600160a01b031681525050610880565b6040805160038082526080820190925290602082016060803683375050855182519293509183915060009061072f5761072f611b92565b6001600160a01b039290921660209283029190910182015284015181518290600190811061075f5761075f611b92565b6001600160a01b03909216602092830291909101909101528360026020020151816002815181106106d3576106d3611b92565b60408051600480825260a082019092529060208201608080368337505085518251929350918391506000906107c9576107c9611b92565b6001600160a01b03929092166020928302919091018201528401518151829060019081106107f9576107f9611b92565b6001600160a01b039092166020928302919091019091015283600260200201518160028151811061082c5761082c611b92565b6001600160a01b039092166020928302919091019091015283600360200201518160038151811061085f5761085f611b92565b60200260200101906001600160a01b031690816001600160a01b0316815250505b939b939a50939850919650505050505050565b6000546001600160a01b031633146108c65760405162461bcd60e51b81526004016108bd90611c76565b60405180910390fd5b6108d0600061132d565b565b60606000846000815181106108e9576108e9611b92565b6020908102919091010151905061090b6001600160a01b03821633308a61137d565b60405163095ea7b360e01b81526001600160a01b0389811660048301526024820189905282169063095ea7b3906044016020604051808303816000875af115801561095a573d6000803e3d6000fd5b505050506040513d601f19601f8201168201806040525081019061097e9190611cab565b506040516338ed173960e01b81526001600160a01b038916906338ed1739906109b3908a908a908a908a908a90600401611ccd565b6000604051808303816000875af11580156109d2573d6000803e3d6000fd5b505050506040513d6000823e601f3d908101601f191682016040526109fa9190810190611bc1565b98975050505050505050565b6000546001600160a01b03163314610a305760405162461bcd60e51b81526004016108bd90611c76565b610a56610a456000546001600160a01b031690565b6001600160a01b03841690836113ee565b5050565b600060608160001981610a6b61168b565b600080610a788b8b610b68565b9150915060005b6001548110156106475760005b82811015610b55576000610aea60018481548110610aac57610aac611b92565b9060005260206000200160009054906101000a90046001600160a01b03168d878581518110610add57610add611b92565b602002602001015161024d565b905087811015610b425780975060018381548110610b0a57610b0a611b92565b60009182526020909120015485516001600160a01b039091169750859083908110610b3757610b37611b92565b602002602001015195505b5080610b4d81611c5d565b915050610a8c565b5080610b6081611c5d565b915050610a7f565b60028054606091600091610b7e90600190611d09565b610b889190611dfc565b610b93906001611e0b565b67ffffffffffffffff811115610bab57610bab6116d7565b604051908082528060200260200182016040528015610be457816020015b610bd161168b565b815260200190600190039081610bc95790505b50604080516080810182526001600160a01b0380881682528616602082015260009181018290526060810182905291935091508282610c2281611c5d565b935081518110610c3457610c34611b92565b602090810291909101015260015b600254811015610f3a5760005b600254811015610f2757856001600160a01b031660028381548110610c7657610c76611b92565b6000918252602090912001546001600160a01b031614801590610cc95750846001600160a01b031660028381548110610cb157610cb1611b92565b6000918252602090912001546001600160a01b031614155b8015610d055750856001600160a01b031660028281548110610ced57610ced611b92565b6000918252602090912001546001600160a01b031614155b8015610d415750846001600160a01b031660028281548110610d2957610d29611b92565b6000918252602090912001546001600160a01b031614155b8015610d9f575060028181548110610d5b57610d5b611b92565b600091825260209091200154600280546001600160a01b039092169184908110610d8757610d87611b92565b6000918252602090912001546001600160a01b031614155b15610f155760006001600160a01b031660028281548110610dc257610dc2611b92565b6000918252602090912001546001600160a01b031603610e66576040518060800160405280876001600160a01b03166001600160a01b0316815260200160028481548110610e1257610e12611b92565b60009182526020808320909101546001600160a01b0390811684528916908301526040909101528484610e4481611c5d565b955081518110610e5657610e56611b92565b6020026020010181905250610f15565b6040518060800160405280876001600160a01b03166001600160a01b0316815260200160028481548110610e9c57610e9c611b92565b600091825260209182902001546001600160a01b0316825260028054929091019184908110610ecd57610ecd611b92565b600091825260209182902001546001600160a01b03908116835288169101528484610ef781611c5d565b955081518110610f0957610f09611b92565b60200260200101819052505b80610f1f81611c5d565b915050610c4f565b5080610f3281611c5d565b915050610c42565b509250929050565b60006060600080610f5487878761053b565b5091509150600163c71a6d0660e01b8a8a8585604051602401610f7a9493929190611e23565b60408051601f198184030181529190526020810180516001600160e01b03166001600160e01b031990931692909217909152909450925050509550959350505050565b606081810151600091906001600160a01b031661110b5760408301516001600160a01b03166110715760408051600280825260608201835290916020830190803683375050845182519293509183915060009061101c5761101c611b92565b6001600160a01b039290921660209283029190910182015283015181518290600190811061104c5761104c611b92565b60200260200101906001600160a01b031690816001600160a01b0316815250506111f9565b604080516003808252608082019092529060208201606080368337505084518251929350918391506000906110a8576110a8611b92565b6001600160a01b03929092166020928302919091018201528301518151829060019081106110d8576110d8611b92565b6001600160a01b039092166020928302919091019091015282600260200201518160028151811061104c5761104c611b92565b60408051600480825260a0820190925290602082016080803683375050845182519293509183915060009061114257611142611b92565b6001600160a01b039290921660209283029190910182015283015181518290600190811061117257611172611b92565b6001600160a01b03909216602092830291909101909101528260026020020151816002815181106111a5576111a5611b92565b6001600160a01b03909216602092830291909101909101528260036020020151816003815181106111d8576111d8611b92565b60200260200101906001600160a01b031690816001600160a01b0316815250505b60405163d06ca61f60e01b81526001600160a01b0386169063d06ca61f906112279087908590600401611ba8565b600060405180830381865afa92505050801561126557506040513d6000823e601f3d908101601f191682016040526112629190810190611bc1565b60015b611273576000915050610524565b81518190611282906001611423565b8151811061051757610517611b92565b6000546001600160a01b031633146112bc5760405162461bcd60e51b81526004016108bd90611c76565b6001600160a01b0381166113215760405162461bcd60e51b815260206004820152602660248201527f4f776e61626c653a206e6577206f776e657220697320746865207a65726f206160448201526564647265737360d01b60648201526084016108bd565b61132a8161132d565b50565b600080546001600160a01b038381166001600160a01b0319831681178455604051919092169283917f8be0079c531659141344cd1fd0a4f28419497f9722a3daafe3b4186f6b6457e09190a35050565b6040516001600160a01b03808516602483015283166044820152606481018290526113e89085906323b872dd60e01b906084015b60408051601f198184030181529190526020810180516001600160e01b03166001600160e01b031990931692909217909152611438565b50505050565b6040516001600160a01b03831660248201526044810182905261141e90849063a9059cbb60e01b906064016113b1565b505050565b600061142f8284611d09565b90505b92915050565b600061148d826040518060400160405280602081526020017f5361666545524332303a206c6f772d6c6576656c2063616c6c206661696c6564815250856001600160a01b031661150a9092919063ffffffff16565b80519091501561141e57808060200190518101906114ab9190611cab565b61141e5760405162461bcd60e51b815260206004820152602a60248201527f5361666545524332303a204552433230206f7065726174696f6e20646964206e6044820152691bdd081cdd58d8d9595960b21b60648201526084016108bd565b60606115198484600085611521565b949350505050565b6060824710156115825760405162461bcd60e51b815260206004820152602660248201527f416464726573733a20696e73756666696369656e742062616c616e636520666f6044820152651c8818d85b1b60d21b60648201526084016108bd565b6001600160a01b0385163b6115d95760405162461bcd60e51b815260206004820152601d60248201527f416464726573733a2063616c6c20746f206e6f6e2d636f6e747261637400000060448201526064016108bd565b600080866001600160a01b031685876040516115f59190611e5a565b60006040518083038185875af1925050503d8060008114611632576040519150601f19603f3d011682016040523d82523d6000602084013e611637565b606091505b5091509150611647828286611652565b979650505050505050565b60608315611661575081610524565b8251156116715782518084602001fd5b8160405162461bcd60e51b81526004016108bd9190611e76565b60405180608001604052806004906020820280368337509192915050565b6000602082840312156116bb57600080fd5b5035919050565b6001600160a01b038116811461132a57600080fd5b634e487b7160e01b600052604160045260246000fd5b604051601f8201601f1916810167ffffffffffffffff81118282101715611716576117166116d7565b604052919050565b8035611729816116c2565b919050565b600080600060c0848603121561174357600080fd5b833561174e816116c2565b92506020848101359250605f8501861361176757600080fd5b6040516080810181811067ffffffffffffffff8211171561178a5761178a6116d7565b6040528060c087018881111561179f57600080fd5b604088015b818110156117c45780356117b7816116c2565b83529184019184016117a4565b50505080925050509250925092565b6000806000606084860312156117e857600080fd5b83356117f3816116c2565b92506020840135611803816116c2565b929592945050506040919091013590565b600081518084526020808501945080840160005b8381101561184d5781516001600160a01b031687529582019590820190600101611828565b509495945050505050565b6001600160a01b038416815260606020820181905260009061187c90830185611814565b9050826040830152949350505050565b600067ffffffffffffffff8211156118a6576118a66116d7565b5060051b60200190565b60008060008060008060c087890312156118c957600080fd5b86356118d4816116c2565b9550602087810135955060408801359450606088013567ffffffffffffffff8111156118ff57600080fd5b8801601f81018a1361191057600080fd5b803561192361191e8261188c565b6116ed565b81815260059190911b8201830190838101908c83111561194257600080fd5b928401925b8284101561196957833561195a816116c2565b82529284019290840190611947565b809750505050505061197d6080880161171e565b915060a087013590509295509295509295565b6020808252825182820181905260009190848201906040850190845b818110156119c8578351835292840192918401916001016119ac565b50909695505050505050565b600080604083850312156119e757600080fd5b82356119f2816116c2565b946020939093013593505050565b60008060408385031215611a1357600080fd5b8235611a1e816116c2565b91506020830135611a2e816116c2565b809150509250929050565b60408082528351908201819052600090602090606084019082870184805b83811015611aa057825185835b6004811015611a8a5782516001600160a01b031682529188019190880190600101611a64565b5050506080949094019391850191600101611a57565b5050505092019290925292915050565b600080600080600060a08688031215611ac857600080fd5b85359450602086013593506040860135611ae1816116c2565b92506060860135611af1816116c2565b949793965091946080013592915050565b60005b83811015611b1d578181015183820152602001611b05565b838111156113e85750506000910152565b60008151808452611b46816020860160208601611b02565b601f01601f19169290920160200192915050565b82151581526040602082015260006115196040830184611b2e565b600060208284031215611b8757600080fd5b8135610524816116c2565b634e487b7160e01b600052603260045260246000fd5b8281526040602082015260006115196040830184611814565b60006020808385031215611bd457600080fd5b825167ffffffffffffffff811115611beb57600080fd5b8301601f81018513611bfc57600080fd5b8051611c0a61191e8261188c565b81815260059190911b82018301908381019087831115611c2957600080fd5b928401925b8284101561164757835182529284019290840190611c2e565b634e487b7160e01b600052601160045260246000fd5b600060018201611c6f57611c6f611c47565b5060010190565b6020808252818101527f4f776e61626c653a2063616c6c6572206973206e6f7420746865206f776e6572604082015260600190565b600060208284031215611cbd57600080fd5b8151801515811461052457600080fd5b85815284602082015260a060408201526000611cec60a0830186611814565b6001600160a01b0394909416606083015250608001529392505050565b600082821015611d1b57611d1b611c47565b500390565b600181815b80851115610f3a578160001904821115611d4157611d41611c47565b80851615611d4e57918102915b93841c9390800290611d25565b600082611d6a57506001611432565b81611d7757506000611432565b8160018114611d8d5760028114611d9757611db3565b6001915050611432565b60ff841115611da857611da8611c47565b50506001821b611432565b5060208310610133831016604e8410600b8410161715611dd6575081810a611432565b611de08383611d20565b8060001904821115611df457611df4611c47565b029392505050565b600061142f60ff841683611d5b565b60008219821115611e1e57611e1e611c47565b500190565b84815283602082015260018060a01b0383166040820152608060608201526000611e506080830184611814565b9695505050505050565b60008251611e6c818460208701611b02565b9190910192915050565b60208152600061142f6020830184611b2e56fea26469706673582212209a7fbb4b79e230c5070bb3e39cd723e0a6b5c92e2009998610b3617002e3067464736f6c634300080d0033",
          "opcodes": "PUSH2 0x140 PUSH1 0x40 MSTORE PUSH20 0xA5E0829CACED8FFDD4DE3C43696C57F7D7A678FF PUSH1 0x80 SWAP1 DUP2 MSTORE PUSH20 0x1B02DA8CB0D097EB8D57A175B88C7D8B47997506 PUSH1 0xA0 MSTORE PUSH20 0x94930A328162957FF1DD48900AF67B5439336CBD PUSH1 0xC0 MSTORE PUSH20 0xC0788A3AD43D79AA53B09C2EACC313A787D1D607 PUSH1 0xE0 MSTORE PUSH20 0xA102072A4C07F06EC3B4900FDC4C7B80B6C57429 PUSH2 0x100 MSTORE PUSH20 0x3A1D87F206D12415F5B0A33E786967680AAB4F6D PUSH2 0x120 MSTORE PUSH3 0xA9 SWAP1 PUSH1 0x1 SWAP1 PUSH1 0x6 PUSH3 0x20C JUMP JUMPDEST POP PUSH1 0x40 DUP1 MLOAD PUSH2 0x120 DUP2 ADD DUP3 MSTORE PUSH1 0x0 DUP2 MSTORE PUSH20 0x8F3CF7AD23CD3CADBD9735AFF958023239C6A063 PUSH1 0x20 DUP3 ADD MSTORE PUSH20 0x2791BCA1F2DE4661ED88A30C99A7A9449AA84174 SWAP2 DUP2 ADD SWAP2 SWAP1 SWAP2 MSTORE PUSH20 0xD500B1D8E8EF31E21C99D1DB9A6444D3ADF1270 PUSH1 0x60 DUP3 ADD MSTORE PUSH20 0x7CEB23FD6BC0ADD59E62AC25578270CFF1B9F619 PUSH1 0x80 DUP3 ADD MSTORE PUSH20 0xC2132D05D31C914A87C6611C10748AEB04B58E8F PUSH1 0xA0 DUP3 ADD MSTORE PUSH20 0x831753DD7087CAC61AB5644B308642CC1C33DC13 PUSH1 0xC0 DUP3 ADD MSTORE PUSH20 0xA3FA99A148FA48D14ED51D610C367C61876997F1 PUSH1 0xE0 DUP3 ADD MSTORE PUSH20 0x1BFD67037B42CF73ACF2047067BD4F2C47D9BFD6 PUSH2 0x100 DUP3 ADD MSTORE PUSH3 0x19C SWAP1 PUSH1 0x2 SWAP1 PUSH1 0x9 PUSH3 0x20C JUMP JUMPDEST POP CALLVALUE DUP1 ISZERO PUSH3 0x1AA JUMPI PUSH1 0x0 DUP1 REVERT JUMPDEST POP PUSH3 0x1B6 CALLER PUSH3 0x1BC JUMP JUMPDEST PUSH3 0x28D JUMP JUMPDEST PUSH1 0x0 DUP1 SLOAD PUSH1 0x1 PUSH1 0x1 PUSH1 0xA0 SHL SUB DUP4 DUP2 AND PUSH1 0x1 PUSH1 0x1 PUSH1 0xA0 SHL SUB NOT DUP4 AND DUP2 OR DUP5 SSTORE PUSH1 0x40 MLOAD SWAP2 SWAP1 SWAP3 AND SWAP3 DUP4 SWAP2 PUSH32 0x8BE0079C531659141344CD1FD0A4F28419497F9722A3DAAFE3B4186F6B6457E0 SWAP2 SWAP1 LOG3 POP POP JUMP JUMPDEST DUP3 DUP1 SLOAD DUP3 DUP3 SSTORE SWAP1 PUSH1 0x0 MSTORE PUSH1 0x20 PUSH1 0x0 KECCAK256 SWAP1 DUP2 ADD SWAP3 DUP3 ISZERO PUSH3 0x264 JUMPI SWAP2 PUSH1 0x20 MUL DUP3 ADD JUMPDEST DUP3 DUP2 GT ISZERO PUSH3 0x264 JUMPI DUP3 MLOAD DUP3 SLOAD PUSH1 0x1 PUSH1 0x1 PUSH1 0xA0 SHL SUB NOT AND PUSH1 0x1 PUSH1 0x1 PUSH1 0xA0 SHL SUB SWAP1 SWAP2 AND OR DUP3 SSTORE PUSH1 0x20 SWAP1 SWAP3 ADD SWAP2 PUSH1 0x1 SWAP1 SWAP2 ADD SWAP1 PUSH3 0x22D JUMP JUMPDEST POP PUSH3 0x272 SWAP3 SWAP2 POP PUSH3 0x276 JUMP JUMPDEST POP SWAP1 JUMP JUMPDEST JUMPDEST DUP1 DUP3 GT ISZERO PUSH3 0x272 JUMPI PUSH1 0x0 DUP2 SSTORE PUSH1 0x1 ADD PUSH3 0x277 JUMP JUMPDEST PUSH2 0x1EBF DUP1 PUSH3 0x29D PUSH1 0x0 CODECOPY PUSH1 0x0 RETURN INVALID PUSH1 0x80 PUSH1 0x40 MSTORE CALLVALUE DUP1 ISZERO PUSH2 0x10 JUMPI PUSH1 0x0 DUP1 REVERT JUMPDEST POP PUSH1 0x4 CALLDATASIZE LT PUSH2 0xCF JUMPI PUSH1 0x0 CALLDATALOAD PUSH1 0xE0 SHR DUP1 PUSH4 0x8DA5CB5B GT PUSH2 0x8C JUMPI DUP1 PUSH4 0xD070166D GT PUSH2 0x66 JUMPI DUP1 PUSH4 0xD070166D EQ PUSH2 0x1BB JUMPI DUP1 PUSH4 0xE34CA65D EQ PUSH2 0x1DC JUMPI DUP1 PUSH4 0xE82CC3A2 EQ PUSH2 0x1FD JUMPI DUP1 PUSH4 0xF2FDE38B EQ PUSH2 0x210 JUMPI PUSH1 0x0 DUP1 REVERT JUMPDEST DUP1 PUSH4 0x8DA5CB5B EQ PUSH2 0x184 JUMPI DUP1 PUSH4 0x95CCEA67 EQ PUSH2 0x195 JUMPI DUP1 PUSH4 0xBD646432 EQ PUSH2 0x1A8 JUMPI PUSH1 0x0 DUP1 REVERT JUMPDEST DUP1 PUSH4 0x19B64015 EQ PUSH2 0xD4 JUMPI DUP1 PUSH4 0x4C4F4D25 EQ PUSH2 0x104 JUMPI DUP1 PUSH4 0x4E9C1118 EQ PUSH2 0x125 JUMPI DUP1 PUSH4 0x65C53D42 EQ PUSH2 0x138 JUMPI DUP1 PUSH4 0x715018A6 EQ PUSH2 0x15A JUMPI DUP1 PUSH4 0x892E20F4 EQ PUSH2 0x164 JUMPI JUMPDEST PUSH1 0x0 DUP1 REVERT JUMPDEST PUSH2 0xE7 PUSH2 0xE2 CALLDATASIZE PUSH1 0x4 PUSH2 0x16A9 JUMP JUMPDEST PUSH2 0x223 JUMP JUMPDEST PUSH1 0x40 MLOAD PUSH1 0x1 PUSH1 0x1 PUSH1 0xA0 SHL SUB SWAP1 SWAP2 AND DUP2 MSTORE PUSH1 0x20 ADD JUMPDEST PUSH1 0x40 MLOAD DUP1 SWAP2 SUB SWAP1 RETURN JUMPDEST PUSH2 0x117 PUSH2 0x112 CALLDATASIZE PUSH1 0x4 PUSH2 0x172E JUMP JUMPDEST PUSH2 0x24D JUMP JUMPDEST PUSH1 0x40 MLOAD SWAP1 DUP2 MSTORE PUSH1 0x20 ADD PUSH2 0xFB JUMP JUMPDEST PUSH2 0xE7 PUSH2 0x133 CALLDATASIZE PUSH1 0x4 PUSH2 0x16A9 JUMP JUMPDEST PUSH2 0x52B JUMP JUMPDEST PUSH2 0x14B PUSH2 0x146 CALLDATASIZE PUSH1 0x4 PUSH2 0x17D3 JUMP JUMPDEST PUSH2 0x53B JUMP JUMPDEST PUSH1 0x40 MLOAD PUSH2 0xFB SWAP4 SWAP3 SWAP2 SWAP1 PUSH2 0x1858 JUMP JUMPDEST PUSH2 0x162 PUSH2 0x893 JUMP JUMPDEST STOP JUMPDEST PUSH2 0x177 PUSH2 0x172 CALLDATASIZE PUSH1 0x4 PUSH2 0x18B0 JUMP JUMPDEST PUSH2 0x8D2 JUMP JUMPDEST PUSH1 0x40 MLOAD PUSH2 0xFB SWAP2 SWAP1 PUSH2 0x1990 JUMP JUMPDEST PUSH1 0x0 SLOAD PUSH1 0x1 PUSH1 0x1 PUSH1 0xA0 SHL SUB AND PUSH2 0xE7 JUMP JUMPDEST PUSH2 0x162 PUSH2 0x1A3 CALLDATASIZE PUSH1 0x4 PUSH2 0x19D4 JUMP JUMPDEST PUSH2 0xA06 JUMP JUMPDEST PUSH2 0x14B PUSH2 0x1B6 CALLDATASIZE PUSH1 0x4 PUSH2 0x17D3 JUMP JUMPDEST PUSH2 0xA5A JUMP JUMPDEST PUSH2 0x1CE PUSH2 0x1C9 CALLDATASIZE PUSH1 0x4 PUSH2 0x1A00 JUMP JUMPDEST PUSH2 0xB68 JUMP JUMPDEST PUSH1 0x40 MLOAD PUSH2 0xFB SWAP3 SWAP2 SWAP1 PUSH2 0x1A39 JUMP JUMPDEST PUSH2 0x1EF PUSH2 0x1EA CALLDATASIZE PUSH1 0x4 PUSH2 0x1AB0 JUMP JUMPDEST PUSH2 0xF42 JUMP JUMPDEST PUSH1 0x40 MLOAD PUSH2 0xFB SWAP3 SWAP2 SWAP1 PUSH2 0x1B5A JUMP JUMPDEST PUSH2 0x117 PUSH2 0x20B CALLDATASIZE PUSH1 0x4 PUSH2 0x172E JUMP JUMPDEST PUSH2 0xFBD JUMP JUMPDEST PUSH2 0x162 PUSH2 0x21E CALLDATASIZE PUSH1 0x4 PUSH2 0x1B75 JUMP JUMPDEST PUSH2 0x1292 JUMP JUMPDEST PUSH1 0x2 DUP2 DUP2 SLOAD DUP2 LT PUSH2 0x233 JUMPI PUSH1 0x0 DUP1 REVERT JUMPDEST PUSH1 0x0 SWAP2 DUP3 MSTORE PUSH1 0x20 SWAP1 SWAP2 KECCAK256 ADD SLOAD PUSH1 0x1 PUSH1 0x1 PUSH1 0xA0 SHL SUB AND SWAP1 POP DUP2 JUMP JUMPDEST PUSH1 0x60 DUP2 DUP2 ADD MLOAD PUSH1 0x0 SWAP2 SWAP1 PUSH1 0x1 PUSH1 0x1 PUSH1 0xA0 SHL SUB AND PUSH2 0x39B JUMPI PUSH1 0x40 DUP4 ADD MLOAD PUSH1 0x1 PUSH1 0x1 PUSH1 0xA0 SHL SUB AND PUSH2 0x301 JUMPI PUSH1 0x40 DUP1 MLOAD PUSH1 0x2 DUP1 DUP3 MSTORE PUSH1 0x60 DUP3 ADD DUP4 MSTORE SWAP1 SWAP2 PUSH1 0x20 DUP4 ADD SWAP1 DUP1 CALLDATASIZE DUP4 CALLDATACOPY POP POP DUP5 MLOAD DUP3 MLOAD SWAP3 SWAP4 POP SWAP2 DUP4 SWAP2 POP PUSH1 0x0 SWAP1 PUSH2 0x2AC JUMPI PUSH2 0x2AC PUSH2 0x1B92 JUMP JUMPDEST PUSH1 0x1 PUSH1 0x1 PUSH1 0xA0 SHL SUB SWAP3 SWAP1 SWAP3 AND PUSH1 0x20 SWAP3 DUP4 MUL SWAP2 SWAP1 SWAP2 ADD DUP3 ADD MSTORE DUP4 ADD MLOAD DUP2 MLOAD DUP3 SWAP1 PUSH1 0x1 SWAP1 DUP2 LT PUSH2 0x2DC JUMPI PUSH2 0x2DC PUSH2 0x1B92 JUMP JUMPDEST PUSH1 0x20 MUL PUSH1 0x20 ADD ADD SWAP1 PUSH1 0x1 PUSH1 0x1 PUSH1 0xA0 SHL SUB AND SWAP1 DUP2 PUSH1 0x1 PUSH1 0x1 PUSH1 0xA0 SHL SUB AND DUP2 MSTORE POP POP PUSH2 0x489 JUMP JUMPDEST PUSH1 0x40 DUP1 MLOAD PUSH1 0x3 DUP1 DUP3 MSTORE PUSH1 0x80 DUP3 ADD SWAP1 SWAP3 MSTORE SWAP1 PUSH1 0x20 DUP3 ADD PUSH1 0x60 DUP1 CALLDATASIZE DUP4 CALLDATACOPY POP POP DUP5 MLOAD DUP3 MLOAD SWAP3 SWAP4 POP SWAP2 DUP4 SWAP2 POP PUSH1 0x0 SWAP1 PUSH2 0x338 JUMPI PUSH2 0x338 PUSH2 0x1B92 JUMP JUMPDEST PUSH1 0x1 PUSH1 0x1 PUSH1 0xA0 SHL SUB SWAP3 SWAP1 SWAP3 AND PUSH1 0x20 SWAP3 DUP4 MUL SWAP2 SWAP1 SWAP2 ADD DUP3 ADD MSTORE DUP4 ADD MLOAD DUP2 MLOAD DUP3 SWAP1 PUSH1 0x1 SWAP1 DUP2 LT PUSH2 0x368 JUMPI PUSH2 0x368 PUSH2 0x1B92 JUMP JUMPDEST PUSH1 0x1 PUSH1 0x1 PUSH1 0xA0 SHL SUB SWAP1 SWAP3 AND PUSH1 0x20 SWAP3 DUP4 MUL SWAP2 SWAP1 SWAP2 ADD SWAP1 SWAP2 ADD MSTORE DUP3 PUSH1 0x2 PUSH1 0x20 MUL ADD MLOAD DUP2 PUSH1 0x2 DUP2 MLOAD DUP2 LT PUSH2 0x2DC JUMPI PUSH2 0x2DC PUSH2 0x1B92 JUMP JUMPDEST PUSH1 0x40 DUP1 MLOAD PUSH1 0x4 DUP1 DUP3 MSTORE PUSH1 0xA0 DUP3 ADD SWAP1 SWAP3 MSTORE SWAP1 PUSH1 0x20 DUP3 ADD PUSH1 0x80 DUP1 CALLDATASIZE DUP4 CALLDATACOPY POP POP DUP5 MLOAD DUP3 MLOAD SWAP3 SWAP4 POP SWAP2 DUP4 SWAP2 POP PUSH1 0x0 SWAP1 PUSH2 0x3D2 JUMPI PUSH2 0x3D2 PUSH2 0x1B92 JUMP JUMPDEST PUSH1 0x1 PUSH1 0x1 PUSH1 0xA0 SHL SUB SWAP3 SWAP1 SWAP3 AND PUSH1 0x20 SWAP3 DUP4 MUL SWAP2 SWAP1 SWAP2 ADD DUP3 ADD MSTORE DUP4 ADD MLOAD DUP2 MLOAD DUP3 SWAP1 PUSH1 0x1 SWAP1 DUP2 LT PUSH2 0x402 JUMPI PUSH2 0x402 PUSH2 0x1B92 JUMP JUMPDEST PUSH1 0x1 PUSH1 0x1 PUSH1 0xA0 SHL SUB SWAP1 SWAP3 AND PUSH1 0x20 SWAP3 DUP4 MUL SWAP2 SWAP1 SWAP2 ADD SWAP1 SWAP2 ADD MSTORE DUP3 PUSH1 0x2 PUSH1 0x20 MUL ADD MLOAD DUP2 PUSH1 0x2 DUP2 MLOAD DUP2 LT PUSH2 0x435 JUMPI PUSH2 0x435 PUSH2 0x1B92 JUMP JUMPDEST PUSH1 0x1 PUSH1 0x1 PUSH1 0xA0 SHL SUB SWAP1 SWAP3 AND PUSH1 0x20 SWAP3 DUP4 MUL SWAP2 SWAP1 SWAP2 ADD SWAP1 SWAP2 ADD MSTORE DUP3 PUSH1 0x3 PUSH1 0x20 MUL ADD MLOAD DUP2 PUSH1 0x3 DUP2 MLOAD DUP2 LT PUSH2 0x468 JUMPI PUSH2 0x468 PUSH2 0x1B92 JUMP JUMPDEST PUSH1 0x20 MUL PUSH1 0x20 ADD ADD SWAP1 PUSH1 0x1 PUSH1 0x1 PUSH1 0xA0 SHL SUB AND SWAP1 DUP2 PUSH1 0x1 PUSH1 0x1 PUSH1 0xA0 SHL SUB AND DUP2 MSTORE POP POP JUMPDEST PUSH1 0x40 MLOAD PUSH4 0x7C0329D PUSH1 0xE2 SHL DUP2 MSTORE PUSH1 0x1 PUSH1 0x1 PUSH1 0xA0 SHL SUB DUP7 AND SWAP1 PUSH4 0x1F00CA74 SWAP1 PUSH2 0x4B7 SWAP1 DUP8 SWAP1 DUP6 SWAP1 PUSH1 0x4 ADD PUSH2 0x1BA8 JUMP JUMPDEST PUSH1 0x0 PUSH1 0x40 MLOAD DUP1 DUP4 SUB DUP2 DUP7 GAS STATICCALL SWAP3 POP POP POP DUP1 ISZERO PUSH2 0x4F5 JUMPI POP PUSH1 0x40 MLOAD RETURNDATASIZE PUSH1 0x0 DUP3 RETURNDATACOPY PUSH1 0x1F RETURNDATASIZE SWAP1 DUP2 ADD PUSH1 0x1F NOT AND DUP3 ADD PUSH1 0x40 MSTORE PUSH2 0x4F2 SWAP2 SWAP1 DUP2 ADD SWAP1 PUSH2 0x1BC1 JUMP JUMPDEST PUSH1 0x1 JUMPDEST PUSH2 0x504 JUMPI PUSH1 0x0 NOT SWAP2 POP POP PUSH2 0x524 JUMP JUMPDEST DUP1 PUSH1 0x0 DUP2 MLOAD DUP2 LT PUSH2 0x517 JUMPI PUSH2 0x517 PUSH2 0x1B92 JUMP JUMPDEST PUSH1 0x20 MUL PUSH1 0x20 ADD ADD MLOAD SWAP3 POP POP POP JUMPDEST SWAP4 SWAP3 POP POP POP JUMP JUMPDEST PUSH1 0x1 DUP2 DUP2 SLOAD DUP2 LT PUSH2 0x233 JUMPI PUSH1 0x0 DUP1 REVERT JUMPDEST PUSH1 0x0 PUSH1 0x60 DUP2 DUP1 DUP1 PUSH2 0x54A PUSH2 0x168B JUMP JUMPDEST PUSH1 0x0 DUP1 PUSH2 0x557 DUP12 DUP12 PUSH2 0xB68 JUMP JUMPDEST SWAP2 POP SWAP2 POP PUSH1 0x0 JUMPDEST PUSH1 0x1 SLOAD DUP2 LT ISZERO PUSH2 0x647 JUMPI PUSH1 0x0 JUMPDEST DUP3 DUP2 LT ISZERO PUSH2 0x634 JUMPI PUSH1 0x0 PUSH2 0x5C9 PUSH1 0x1 DUP5 DUP2 SLOAD DUP2 LT PUSH2 0x58B JUMPI PUSH2 0x58B PUSH2 0x1B92 JUMP JUMPDEST SWAP1 PUSH1 0x0 MSTORE PUSH1 0x20 PUSH1 0x0 KECCAK256 ADD PUSH1 0x0 SWAP1 SLOAD SWAP1 PUSH2 0x100 EXP SWAP1 DIV PUSH1 0x1 PUSH1 0x1 PUSH1 0xA0 SHL SUB AND DUP14 DUP8 DUP6 DUP2 MLOAD DUP2 LT PUSH2 0x5BC JUMPI PUSH2 0x5BC PUSH2 0x1B92 JUMP JUMPDEST PUSH1 0x20 MUL PUSH1 0x20 ADD ADD MLOAD PUSH2 0xFBD JUMP JUMPDEST SWAP1 POP DUP8 DUP2 GT ISZERO PUSH2 0x621 JUMPI DUP1 SWAP8 POP PUSH1 0x1 DUP4 DUP2 SLOAD DUP2 LT PUSH2 0x5E9 JUMPI PUSH2 0x5E9 PUSH2 0x1B92 JUMP JUMPDEST PUSH1 0x0 SWAP2 DUP3 MSTORE PUSH1 0x20 SWAP1 SWAP2 KECCAK256 ADD SLOAD DUP6 MLOAD PUSH1 0x1 PUSH1 0x1 PUSH1 0xA0 SHL SUB SWAP1 SWAP2 AND SWAP8 POP DUP6 SWAP1 DUP4 SWAP1 DUP2 LT PUSH2 0x616 JUMPI PUSH2 0x616 PUSH2 0x1B92 JUMP JUMPDEST PUSH1 0x20 MUL PUSH1 0x20 ADD ADD MLOAD SWAP6 POP JUMPDEST POP DUP1 PUSH2 0x62C DUP2 PUSH2 0x1C5D JUMP JUMPDEST SWAP2 POP POP PUSH2 0x56B JUMP JUMPDEST POP DUP1 PUSH2 0x63F DUP2 PUSH2 0x1C5D JUMP JUMPDEST SWAP2 POP POP PUSH2 0x55E JUMP JUMPDEST POP PUSH1 0x60 DUP4 DUP2 ADD MLOAD PUSH1 0x1 PUSH1 0x1 PUSH1 0xA0 SHL SUB AND PUSH2 0x792 JUMPI PUSH1 0x40 DUP5 ADD MLOAD PUSH1 0x1 PUSH1 0x1 PUSH1 0xA0 SHL SUB AND PUSH2 0x6F8 JUMPI PUSH1 0x40 DUP1 MLOAD PUSH1 0x2 DUP1 DUP3 MSTORE PUSH1 0x60 DUP3 ADD DUP4 MSTORE SWAP1 SWAP2 PUSH1 0x20 DUP4 ADD SWAP1 DUP1 CALLDATASIZE DUP4 CALLDATACOPY POP POP DUP6 MLOAD DUP3 MLOAD SWAP3 SWAP4 POP SWAP2 DUP4 SWAP2 POP PUSH1 0x0 SWAP1 PUSH2 0x6A3 JUMPI PUSH2 0x6A3 PUSH2 0x1B92 JUMP JUMPDEST PUSH1 0x1 PUSH1 0x1 PUSH1 0xA0 SHL SUB SWAP3 SWAP1 SWAP3 AND PUSH1 0x20 SWAP3 DUP4 MUL SWAP2 SWAP1 SWAP2 ADD DUP3 ADD MSTORE DUP5 ADD MLOAD DUP2 MLOAD DUP3 SWAP1 PUSH1 0x1 SWAP1 DUP2 LT PUSH2 0x6D3 JUMPI PUSH2 0x6D3 PUSH2 0x1B92 JUMP JUMPDEST PUSH1 0x20 MUL PUSH1 0x20 ADD ADD SWAP1 PUSH1 0x1 PUSH1 0x1 PUSH1 0xA0 SHL SUB AND SWAP1 DUP2 PUSH1 0x1 PUSH1 0x1 PUSH1 0xA0 SHL SUB AND DUP2 MSTORE POP POP PUSH2 0x880 JUMP JUMPDEST PUSH1 0x40 DUP1 MLOAD PUSH1 0x3 DUP1 DUP3 MSTORE PUSH1 0x80 DUP3 ADD SWAP1 SWAP3 MSTORE SWAP1 PUSH1 0x20 DUP3 ADD PUSH1 0x60 DUP1 CALLDATASIZE DUP4 CALLDATACOPY POP POP DUP6 MLOAD DUP3 MLOAD SWAP3 SWAP4 POP SWAP2 DUP4 SWAP2 POP PUSH1 0x0 SWAP1 PUSH2 0x72F JUMPI PUSH2 0x72F PUSH2 0x1B92 JUMP JUMPDEST PUSH1 0x1 PUSH1 0x1 PUSH1 0xA0 SHL SUB SWAP3 SWAP1 SWAP3 AND PUSH1 0x20 SWAP3 DUP4 MUL SWAP2 SWAP1 SWAP2 ADD DUP3 ADD MSTORE DUP5 ADD MLOAD DUP2 MLOAD DUP3 SWAP1 PUSH1 0x1 SWAP1 DUP2 LT PUSH2 0x75F JUMPI PUSH2 0x75F PUSH2 0x1B92 JUMP JUMPDEST PUSH1 0x1 PUSH1 0x1 PUSH1 0xA0 SHL SUB SWAP1 SWAP3 AND PUSH1 0x20 SWAP3 DUP4 MUL SWAP2 SWAP1 SWAP2 ADD SWAP1 SWAP2 ADD MSTORE DUP4 PUSH1 0x2 PUSH1 0x20 MUL ADD MLOAD DUP2 PUSH1 0x2 DUP2 MLOAD DUP2 LT PUSH2 0x6D3 JUMPI PUSH2 0x6D3 PUSH2 0x1B92 JUMP JUMPDEST PUSH1 0x40 DUP1 MLOAD PUSH1 0x4 DUP1 DUP3 MSTORE PUSH1 0xA0 DUP3 ADD SWAP1 SWAP3 MSTORE SWAP1 PUSH1 0x20 DUP3 ADD PUSH1 0x80 DUP1 CALLDATASIZE DUP4 CALLDATACOPY POP POP DUP6 MLOAD DUP3 MLOAD SWAP3 SWAP4 POP SWAP2 DUP4 SWAP2 POP PUSH1 0x0 SWAP1 PUSH2 0x7C9 JUMPI PUSH2 0x7C9 PUSH2 0x1B92 JUMP JUMPDEST PUSH1 0x1 PUSH1 0x1 PUSH1 0xA0 SHL SUB SWAP3 SWAP1 SWAP3 AND PUSH1 0x20 SWAP3 DUP4 MUL SWAP2 SWAP1 SWAP2 ADD DUP3 ADD MSTORE DUP5 ADD MLOAD DUP2 MLOAD DUP3 SWAP1 PUSH1 0x1 SWAP1 DUP2 LT PUSH2 0x7F9 JUMPI PUSH2 0x7F9 PUSH2 0x1B92 JUMP JUMPDEST PUSH1 0x1 PUSH1 0x1 PUSH1 0xA0 SHL SUB SWAP1 SWAP3 AND PUSH1 0x20 SWAP3 DUP4 MUL SWAP2 SWAP1 SWAP2 ADD SWAP1 SWAP2 ADD MSTORE DUP4 PUSH1 0x2 PUSH1 0x20 MUL ADD MLOAD DUP2 PUSH1 0x2 DUP2 MLOAD DUP2 LT PUSH2 0x82C JUMPI PUSH2 0x82C PUSH2 0x1B92 JUMP JUMPDEST PUSH1 0x1 PUSH1 0x1 PUSH1 0xA0 SHL SUB SWAP1 SWAP3 AND PUSH1 0x20 SWAP3 DUP4 MUL SWAP2 SWAP1 SWAP2 ADD SWAP1 SWAP2 ADD MSTORE DUP4 PUSH1 0x3 PUSH1 0x20 MUL ADD MLOAD DUP2 PUSH1 0x3 DUP2 MLOAD DUP2 LT PUSH2 0x85F JUMPI PUSH2 0x85F PUSH2 0x1B92 JUMP JUMPDEST PUSH1 0x20 MUL PUSH1 0x20 ADD ADD SWAP1 PUSH1 0x1 PUSH1 0x1 PUSH1 0xA0 SHL SUB AND SWAP1 DUP2 PUSH1 0x1 PUSH1 0x1 PUSH1 0xA0 SHL SUB AND DUP2 MSTORE POP POP JUMPDEST SWAP4 SWAP12 SWAP4 SWAP11 POP SWAP4 SWAP9 POP SWAP2 SWAP7 POP POP POP POP POP POP POP JUMP JUMPDEST PUSH1 0x0 SLOAD PUSH1 0x1 PUSH1 0x1 PUSH1 0xA0 SHL SUB AND CALLER EQ PUSH2 0x8C6 JUMPI PUSH1 0x40 MLOAD PUSH3 0x461BCD PUSH1 0xE5 SHL DUP2 MSTORE PUSH1 0x4 ADD PUSH2 0x8BD SWAP1 PUSH2 0x1C76 JUMP JUMPDEST PUSH1 0x40 MLOAD DUP1 SWAP2 SUB SWAP1 REVERT JUMPDEST PUSH2 0x8D0 PUSH1 0x0 PUSH2 0x132D JUMP JUMPDEST JUMP JUMPDEST PUSH1 0x60 PUSH1 0x0 DUP5 PUSH1 0x0 DUP2 MLOAD DUP2 LT PUSH2 0x8E9 JUMPI PUSH2 0x8E9 PUSH2 0x1B92 JUMP JUMPDEST PUSH1 0x20 SWAP1 DUP2 MUL SWAP2 SWAP1 SWAP2 ADD ADD MLOAD SWAP1 POP PUSH2 0x90B PUSH1 0x1 PUSH1 0x1 PUSH1 0xA0 SHL SUB DUP3 AND CALLER ADDRESS DUP11 PUSH2 0x137D JUMP JUMPDEST PUSH1 0x40 MLOAD PUSH4 0x95EA7B3 PUSH1 0xE0 SHL DUP2 MSTORE PUSH1 0x1 PUSH1 0x1 PUSH1 0xA0 SHL SUB DUP10 DUP2 AND PUSH1 0x4 DUP4 ADD MSTORE PUSH1 0x24 DUP3 ADD DUP10 SWAP1 MSTORE DUP3 AND SWAP1 PUSH4 0x95EA7B3 SWAP1 PUSH1 0x44 ADD PUSH1 0x20 PUSH1 0x40 MLOAD DUP1 DUP4 SUB DUP2 PUSH1 0x0 DUP8 GAS CALL ISZERO DUP1 ISZERO PUSH2 0x95A JUMPI RETURNDATASIZE PUSH1 0x0 DUP1 RETURNDATACOPY RETURNDATASIZE PUSH1 0x0 REVERT JUMPDEST POP POP POP POP PUSH1 0x40 MLOAD RETURNDATASIZE PUSH1 0x1F NOT PUSH1 0x1F DUP3 ADD AND DUP3 ADD DUP1 PUSH1 0x40 MSTORE POP DUP2 ADD SWAP1 PUSH2 0x97E SWAP2 SWAP1 PUSH2 0x1CAB JUMP JUMPDEST POP PUSH1 0x40 MLOAD PUSH4 0x38ED1739 PUSH1 0xE0 SHL DUP2 MSTORE PUSH1 0x1 PUSH1 0x1 PUSH1 0xA0 SHL SUB DUP10 AND SWAP1 PUSH4 0x38ED1739 SWAP1 PUSH2 0x9B3 SWAP1 DUP11 SWAP1 DUP11 SWAP1 DUP11 SWAP1 DUP11 SWAP1 DUP11 SWAP1 PUSH1 0x4 ADD PUSH2 0x1CCD JUMP JUMPDEST PUSH1 0x0 PUSH1 0x40 MLOAD DUP1 DUP4 SUB DUP2 PUSH1 0x0 DUP8 GAS CALL ISZERO DUP1 ISZERO PUSH2 0x9D2 JUMPI RETURNDATASIZE PUSH1 0x0 DUP1 RETURNDATACOPY RETURNDATASIZE PUSH1 0x0 REVERT JUMPDEST POP POP POP POP PUSH1 0x40 MLOAD RETURNDATASIZE PUSH1 0x0 DUP3 RETURNDATACOPY PUSH1 0x1F RETURNDATASIZE SWAP1 DUP2 ADD PUSH1 0x1F NOT AND DUP3 ADD PUSH1 0x40 MSTORE PUSH2 0x9FA SWAP2 SWAP1 DUP2 ADD SWAP1 PUSH2 0x1BC1 JUMP JUMPDEST SWAP9 SWAP8 POP POP POP POP POP POP POP POP JUMP JUMPDEST PUSH1 0x0 SLOAD PUSH1 0x1 PUSH1 0x1 PUSH1 0xA0 SHL SUB AND CALLER EQ PUSH2 0xA30 JUMPI PUSH1 0x40 MLOAD PUSH3 0x461BCD PUSH1 0xE5 SHL DUP2 MSTORE PUSH1 0x4 ADD PUSH2 0x8BD SWAP1 PUSH2 0x1C76 JUMP JUMPDEST PUSH2 0xA56 PUSH2 0xA45 PUSH1 0x0 SLOAD PUSH1 0x1 PUSH1 0x1 PUSH1 0xA0 SHL SUB AND SWAP1 JUMP JUMPDEST PUSH1 0x1 PUSH1 0x1 PUSH1 0xA0 SHL SUB DUP5 AND SWAP1 DUP4 PUSH2 0x13EE JUMP JUMPDEST POP POP JUMP JUMPDEST PUSH1 0x0 PUSH1 0x60 DUP2 PUSH1 0x0 NOT DUP2 PUSH2 0xA6B PUSH2 0x168B JUMP JUMPDEST PUSH1 0x0 DUP1 PUSH2 0xA78 DUP12 DUP12 PUSH2 0xB68 JUMP JUMPDEST SWAP2 POP SWAP2 POP PUSH1 0x0 JUMPDEST PUSH1 0x1 SLOAD DUP2 LT ISZERO PUSH2 0x647 JUMPI PUSH1 0x0 JUMPDEST DUP3 DUP2 LT ISZERO PUSH2 0xB55 JUMPI PUSH1 0x0 PUSH2 0xAEA PUSH1 0x1 DUP5 DUP2 SLOAD DUP2 LT PUSH2 0xAAC JUMPI PUSH2 0xAAC PUSH2 0x1B92 JUMP JUMPDEST SWAP1 PUSH1 0x0 MSTORE PUSH1 0x20 PUSH1 0x0 KECCAK256 ADD PUSH1 0x0 SWAP1 SLOAD SWAP1 PUSH2 0x100 EXP SWAP1 DIV PUSH1 0x1 PUSH1 0x1 PUSH1 0xA0 SHL SUB AND DUP14 DUP8 DUP6 DUP2 MLOAD DUP2 LT PUSH2 0xADD JUMPI PUSH2 0xADD PUSH2 0x1B92 JUMP JUMPDEST PUSH1 0x20 MUL PUSH1 0x20 ADD ADD MLOAD PUSH2 0x24D JUMP JUMPDEST SWAP1 POP DUP8 DUP2 LT ISZERO PUSH2 0xB42 JUMPI DUP1 SWAP8 POP PUSH1 0x1 DUP4 DUP2 SLOAD DUP2 LT PUSH2 0xB0A JUMPI PUSH2 0xB0A PUSH2 0x1B92 JUMP JUMPDEST PUSH1 0x0 SWAP2 DUP3 MSTORE PUSH1 0x20 SWAP1 SWAP2 KECCAK256 ADD SLOAD DUP6 MLOAD PUSH1 0x1 PUSH1 0x1 PUSH1 0xA0 SHL SUB SWAP1 SWAP2 AND SWAP8 POP DUP6 SWAP1 DUP4 SWAP1 DUP2 LT PUSH2 0xB37 JUMPI PUSH2 0xB37 PUSH2 0x1B92 JUMP JUMPDEST PUSH1 0x20 MUL PUSH1 0x20 ADD ADD MLOAD SWAP6 POP JUMPDEST POP DUP1 PUSH2 0xB4D DUP2 PUSH2 0x1C5D JUMP JUMPDEST SWAP2 POP POP PUSH2 0xA8C JUMP JUMPDEST POP DUP1 PUSH2 0xB60 DUP2 PUSH2 0x1C5D JUMP JUMPDEST SWAP2 POP POP PUSH2 0xA7F JUMP JUMPDEST PUSH1 0x2 DUP1 SLOAD PUSH1 0x60 SWAP2 PUSH1 0x0 SWAP2 PUSH2 0xB7E SWAP1 PUSH1 0x1 SWAP1 PUSH2 0x1D09 JUMP JUMPDEST PUSH2 0xB88 SWAP2 SWAP1 PUSH2 0x1DFC JUMP JUMPDEST PUSH2 0xB93 SWAP1 PUSH1 0x1 PUSH2 0x1E0B JUMP JUMPDEST PUSH8 0xFFFFFFFFFFFFFFFF DUP2 GT ISZERO PUSH2 0xBAB JUMPI PUSH2 0xBAB PUSH2 0x16D7 JUMP JUMPDEST PUSH1 0x40 MLOAD SWAP1 DUP1 DUP3 MSTORE DUP1 PUSH1 0x20 MUL PUSH1 0x20 ADD DUP3 ADD PUSH1 0x40 MSTORE DUP1 ISZERO PUSH2 0xBE4 JUMPI DUP2 PUSH1 0x20 ADD JUMPDEST PUSH2 0xBD1 PUSH2 0x168B JUMP JUMPDEST DUP2 MSTORE PUSH1 0x20 ADD SWAP1 PUSH1 0x1 SWAP1 SUB SWAP1 DUP2 PUSH2 0xBC9 JUMPI SWAP1 POP JUMPDEST POP PUSH1 0x40 DUP1 MLOAD PUSH1 0x80 DUP2 ADD DUP3 MSTORE PUSH1 0x1 PUSH1 0x1 PUSH1 0xA0 SHL SUB DUP1 DUP9 AND DUP3 MSTORE DUP7 AND PUSH1 0x20 DUP3 ADD MSTORE PUSH1 0x0 SWAP2 DUP2 ADD DUP3 SWAP1 MSTORE PUSH1 0x60 DUP2 ADD DUP3 SWAP1 MSTORE SWAP2 SWAP4 POP SWAP2 POP DUP3 DUP3 PUSH2 0xC22 DUP2 PUSH2 0x1C5D JUMP JUMPDEST SWAP4 POP DUP2 MLOAD DUP2 LT PUSH2 0xC34 JUMPI PUSH2 0xC34 PUSH2 0x1B92 JUMP JUMPDEST PUSH1 0x20 SWAP1 DUP2 MUL SWAP2 SWAP1 SWAP2 ADD ADD MSTORE PUSH1 0x1 JUMPDEST PUSH1 0x2 SLOAD DUP2 LT ISZERO PUSH2 0xF3A JUMPI PUSH1 0x0 JUMPDEST PUSH1 0x2 SLOAD DUP2 LT ISZERO PUSH2 0xF27 JUMPI DUP6 PUSH1 0x1 PUSH1 0x1 PUSH1 0xA0 SHL SUB AND PUSH1 0x2 DUP4 DUP2 SLOAD DUP2 LT PUSH2 0xC76 JUMPI PUSH2 0xC76 PUSH2 0x1B92 JUMP JUMPDEST PUSH1 0x0 SWAP2 DUP3 MSTORE PUSH1 0x20 SWAP1 SWAP2 KECCAK256 ADD SLOAD PUSH1 0x1 PUSH1 0x1 PUSH1 0xA0 SHL SUB AND EQ DUP1 ISZERO SWAP1 PUSH2 0xCC9 JUMPI POP DUP5 PUSH1 0x1 PUSH1 0x1 PUSH1 0xA0 SHL SUB AND PUSH1 0x2 DUP4 DUP2 SLOAD DUP2 LT PUSH2 0xCB1 JUMPI PUSH2 0xCB1 PUSH2 0x1B92 JUMP JUMPDEST PUSH1 0x0 SWAP2 DUP3 MSTORE PUSH1 0x20 SWAP1 SWAP2 KECCAK256 ADD SLOAD PUSH1 0x1 PUSH1 0x1 PUSH1 0xA0 SHL SUB AND EQ ISZERO JUMPDEST DUP1 ISZERO PUSH2 0xD05 JUMPI POP DUP6 PUSH1 0x1 PUSH1 0x1 PUSH1 0xA0 SHL SUB AND PUSH1 0x2 DUP3 DUP2 SLOAD DUP2 LT PUSH2 0xCED JUMPI PUSH2 0xCED PUSH2 0x1B92 JUMP JUMPDEST PUSH1 0x0 SWAP2 DUP3 MSTORE PUSH1 0x20 SWAP1 SWAP2 KECCAK256 ADD SLOAD PUSH1 0x1 PUSH1 0x1 PUSH1 0xA0 SHL SUB AND EQ ISZERO JUMPDEST DUP1 ISZERO PUSH2 0xD41 JUMPI POP DUP5 PUSH1 0x1 PUSH1 0x1 PUSH1 0xA0 SHL SUB AND PUSH1 0x2 DUP3 DUP2 SLOAD DUP2 LT PUSH2 0xD29 JUMPI PUSH2 0xD29 PUSH2 0x1B92 JUMP JUMPDEST PUSH1 0x0 SWAP2 DUP3 MSTORE PUSH1 0x20 SWAP1 SWAP2 KECCAK256 ADD SLOAD PUSH1 0x1 PUSH1 0x1 PUSH1 0xA0 SHL SUB AND EQ ISZERO JUMPDEST DUP1 ISZERO PUSH2 0xD9F JUMPI POP PUSH1 0x2 DUP2 DUP2 SLOAD DUP2 LT PUSH2 0xD5B JUMPI PUSH2 0xD5B PUSH2 0x1B92 JUMP JUMPDEST PUSH1 0x0 SWAP2 DUP3 MSTORE PUSH1 0x20 SWAP1 SWAP2 KECCAK256 ADD SLOAD PUSH1 0x2 DUP1 SLOAD PUSH1 0x1 PUSH1 0x1 PUSH1 0xA0 SHL SUB SWAP1 SWAP3 AND SWAP2 DUP5 SWAP1 DUP2 LT PUSH2 0xD87 JUMPI PUSH2 0xD87 PUSH2 0x1B92 JUMP JUMPDEST PUSH1 0x0 SWAP2 DUP3 MSTORE PUSH1 0x20 SWAP1 SWAP2 KECCAK256 ADD SLOAD PUSH1 0x1 PUSH1 0x1 PUSH1 0xA0 SHL SUB AND EQ ISZERO JUMPDEST ISZERO PUSH2 0xF15 JUMPI PUSH1 0x0 PUSH1 0x1 PUSH1 0x1 PUSH1 0xA0 SHL SUB AND PUSH1 0x2 DUP3 DUP2 SLOAD DUP2 LT PUSH2 0xDC2 JUMPI PUSH2 0xDC2 PUSH2 0x1B92 JUMP JUMPDEST PUSH1 0x0 SWAP2 DUP3 MSTORE PUSH1 0x20 SWAP1 SWAP2 KECCAK256 ADD SLOAD PUSH1 0x1 PUSH1 0x1 PUSH1 0xA0 SHL SUB AND SUB PUSH2 0xE66 JUMPI PUSH1 0x40 MLOAD DUP1 PUSH1 0x80 ADD PUSH1 0x40 MSTORE DUP1 DUP8 PUSH1 0x1 PUSH1 0x1 PUSH1 0xA0 SHL SUB AND PUSH1 0x1 PUSH1 0x1 PUSH1 0xA0 SHL SUB AND DUP2 MSTORE PUSH1 0x20 ADD PUSH1 0x2 DUP5 DUP2 SLOAD DUP2 LT PUSH2 0xE12 JUMPI PUSH2 0xE12 PUSH2 0x1B92 JUMP JUMPDEST PUSH1 0x0 SWAP2 DUP3 MSTORE PUSH1 0x20 DUP1 DUP4 KECCAK256 SWAP1 SWAP2 ADD SLOAD PUSH1 0x1 PUSH1 0x1 PUSH1 0xA0 SHL SUB SWAP1 DUP2 AND DUP5 MSTORE DUP10 AND SWAP1 DUP4 ADD MSTORE PUSH1 0x40 SWAP1 SWAP2 ADD MSTORE DUP5 DUP5 PUSH2 0xE44 DUP2 PUSH2 0x1C5D JUMP JUMPDEST SWAP6 POP DUP2 MLOAD DUP2 LT PUSH2 0xE56 JUMPI PUSH2 0xE56 PUSH2 0x1B92 JUMP JUMPDEST PUSH1 0x20 MUL PUSH1 0x20 ADD ADD DUP2 SWAP1 MSTORE POP PUSH2 0xF15 JUMP JUMPDEST PUSH1 0x40 MLOAD DUP1 PUSH1 0x80 ADD PUSH1 0x40 MSTORE DUP1 DUP8 PUSH1 0x1 PUSH1 0x1 PUSH1 0xA0 SHL SUB AND PUSH1 0x1 PUSH1 0x1 PUSH1 0xA0 SHL SUB AND DUP2 MSTORE PUSH1 0x20 ADD PUSH1 0x2 DUP5 DUP2 SLOAD DUP2 LT PUSH2 0xE9C JUMPI PUSH2 0xE9C PUSH2 0x1B92 JUMP JUMPDEST PUSH1 0x0 SWAP2 DUP3 MSTORE PUSH1 0x20 SWAP2 DUP3 SWAP1 KECCAK256 ADD SLOAD PUSH1 0x1 PUSH1 0x1 PUSH1 0xA0 SHL SUB AND DUP3 MSTORE PUSH1 0x2 DUP1 SLOAD SWAP3 SWAP1 SWAP2 ADD SWAP2 DUP5 SWAP1 DUP2 LT PUSH2 0xECD JUMPI PUSH2 0xECD PUSH2 0x1B92 JUMP JUMPDEST PUSH1 0x0 SWAP2 DUP3 MSTORE PUSH1 0x20 SWAP2 DUP3 SWAP1 KECCAK256 ADD SLOAD PUSH1 0x1 PUSH1 0x1 PUSH1 0xA0 SHL SUB SWAP1 DUP2 AND DUP4 MSTORE DUP9 AND SWAP2 ADD MSTORE DUP5 DUP5 PUSH2 0xEF7 DUP2 PUSH2 0x1C5D JUMP JUMPDEST SWAP6 POP DUP2 MLOAD DUP2 LT PUSH2 0xF09 JUMPI PUSH2 0xF09 PUSH2 0x1B92 JUMP JUMPDEST PUSH1 0x20 MUL PUSH1 0x20 ADD ADD DUP2 SWAP1 MSTORE POP JUMPDEST DUP1 PUSH2 0xF1F DUP2 PUSH2 0x1C5D JUMP JUMPDEST SWAP2 POP POP PUSH2 0xC4F JUMP JUMPDEST POP DUP1 PUSH2 0xF32 DUP2 PUSH2 0x1C5D JUMP JUMPDEST SWAP2 POP POP PUSH2 0xC42 JUMP JUMPDEST POP SWAP3 POP SWAP3 SWAP1 POP JUMP JUMPDEST PUSH1 0x0 PUSH1 0x60 PUSH1 0x0 DUP1 PUSH2 0xF54 DUP8 DUP8 DUP8 PUSH2 0x53B JUMP JUMPDEST POP SWAP2 POP SWAP2 POP PUSH1 0x1 PUSH4 0xC71A6D06 PUSH1 0xE0 SHL DUP11 DUP11 DUP6 DUP6 PUSH1 0x40 MLOAD PUSH1 0x24 ADD PUSH2 0xF7A SWAP5 SWAP4 SWAP3 SWAP2 SWAP1 PUSH2 0x1E23 JUMP JUMPDEST PUSH1 0x40 DUP1 MLOAD PUSH1 0x1F NOT DUP2 DUP5 SUB ADD DUP2 MSTORE SWAP2 SWAP1 MSTORE PUSH1 0x20 DUP2 ADD DUP1 MLOAD PUSH1 0x1 PUSH1 0x1 PUSH1 0xE0 SHL SUB AND PUSH1 0x1 PUSH1 0x1 PUSH1 0xE0 SHL SUB NOT SWAP1 SWAP4 AND SWAP3 SWAP1 SWAP3 OR SWAP1 SWAP2 MSTORE SWAP1 SWAP5 POP SWAP3 POP POP POP SWAP6 POP SWAP6 SWAP4 POP POP POP POP JUMP JUMPDEST PUSH1 0x60 DUP2 DUP2 ADD MLOAD PUSH1 0x0 SWAP2 SWAP1 PUSH1 0x1 PUSH1 0x1 PUSH1 0xA0 SHL SUB AND PUSH2 0x110B JUMPI PUSH1 0x40 DUP4 ADD MLOAD PUSH1 0x1 PUSH1 0x1 PUSH1 0xA0 SHL SUB AND PUSH2 0x1071 JUMPI PUSH1 0x40 DUP1 MLOAD PUSH1 0x2 DUP1 DUP3 MSTORE PUSH1 0x60 DUP3 ADD DUP4 MSTORE SWAP1 SWAP2 PUSH1 0x20 DUP4 ADD SWAP1 DUP1 CALLDATASIZE DUP4 CALLDATACOPY POP POP DUP5 MLOAD DUP3 MLOAD SWAP3 SWAP4 POP SWAP2 DUP4 SWAP2 POP PUSH1 0x0 SWAP1 PUSH2 0x101C JUMPI PUSH2 0x101C PUSH2 0x1B92 JUMP JUMPDEST PUSH1 0x1 PUSH1 0x1 PUSH1 0xA0 SHL SUB SWAP3 SWAP1 SWAP3 AND PUSH1 0x20 SWAP3 DUP4 MUL SWAP2 SWAP1 SWAP2 ADD DUP3 ADD MSTORE DUP4 ADD MLOAD DUP2 MLOAD DUP3 SWAP1 PUSH1 0x1 SWAP1 DUP2 LT PUSH2 0x104C JUMPI PUSH2 0x104C PUSH2 0x1B92 JUMP JUMPDEST PUSH1 0x20 MUL PUSH1 0x20 ADD ADD SWAP1 PUSH1 0x1 PUSH1 0x1 PUSH1 0xA0 SHL SUB AND SWAP1 DUP2 PUSH1 0x1 PUSH1 0x1 PUSH1 0xA0 SHL SUB AND DUP2 MSTORE POP POP PUSH2 0x11F9 JUMP JUMPDEST PUSH1 0x40 DUP1 MLOAD PUSH1 0x3 DUP1 DUP3 MSTORE PUSH1 0x80 DUP3 ADD SWAP1 SWAP3 MSTORE SWAP1 PUSH1 0x20 DUP3 ADD PUSH1 0x60 DUP1 CALLDATASIZE DUP4 CALLDATACOPY POP POP DUP5 MLOAD DUP3 MLOAD SWAP3 SWAP4 POP SWAP2 DUP4 SWAP2 POP PUSH1 0x0 SWAP1 PUSH2 0x10A8 JUMPI PUSH2 0x10A8 PUSH2 0x1B92 JUMP JUMPDEST PUSH1 0x1 PUSH1 0x1 PUSH1 0xA0 SHL SUB SWAP3 SWAP1 SWAP3 AND PUSH1 0x20 SWAP3 DUP4 MUL SWAP2 SWAP1 SWAP2 ADD DUP3 ADD MSTORE DUP4 ADD MLOAD DUP2 MLOAD DUP3 SWAP1 PUSH1 0x1 SWAP1 DUP2 LT PUSH2 0x10D8 JUMPI PUSH2 0x10D8 PUSH2 0x1B92 JUMP JUMPDEST PUSH1 0x1 PUSH1 0x1 PUSH1 0xA0 SHL SUB SWAP1 SWAP3 AND PUSH1 0x20 SWAP3 DUP4 MUL SWAP2 SWAP1 SWAP2 ADD SWAP1 SWAP2 ADD MSTORE DUP3 PUSH1 0x2 PUSH1 0x20 MUL ADD MLOAD DUP2 PUSH1 0x2 DUP2 MLOAD DUP2 LT PUSH2 0x104C JUMPI PUSH2 0x104C PUSH2 0x1B92 JUMP JUMPDEST PUSH1 0x40 DUP1 MLOAD PUSH1 0x4 DUP1 DUP3 MSTORE PUSH1 0xA0 DUP3 ADD SWAP1 SWAP3 MSTORE SWAP1 PUSH1 0x20 DUP3 ADD PUSH1 0x80 DUP1 CALLDATASIZE DUP4 CALLDATACOPY POP POP DUP5 MLOAD DUP3 MLOAD SWAP3 SWAP4 POP SWAP2 DUP4 SWAP2 POP PUSH1 0x0 SWAP1 PUSH2 0x1142 JUMPI PUSH2 0x1142 PUSH2 0x1B92 JUMP JUMPDEST PUSH1 0x1 PUSH1 0x1 PUSH1 0xA0 SHL SUB SWAP3 SWAP1 SWAP3 AND PUSH1 0x20 SWAP3 DUP4 MUL SWAP2 SWAP1 SWAP2 ADD DUP3 ADD MSTORE DUP4 ADD MLOAD DUP2 MLOAD DUP3 SWAP1 PUSH1 0x1 SWAP1 DUP2 LT PUSH2 0x1172 JUMPI PUSH2 0x1172 PUSH2 0x1B92 JUMP JUMPDEST PUSH1 0x1 PUSH1 0x1 PUSH1 0xA0 SHL SUB SWAP1 SWAP3 AND PUSH1 0x20 SWAP3 DUP4 MUL SWAP2 SWAP1 SWAP2 ADD SWAP1 SWAP2 ADD MSTORE DUP3 PUSH1 0x2 PUSH1 0x20 MUL ADD MLOAD DUP2 PUSH1 0x2 DUP2 MLOAD DUP2 LT PUSH2 0x11A5 JUMPI PUSH2 0x11A5 PUSH2 0x1B92 JUMP JUMPDEST PUSH1 0x1 PUSH1 0x1 PUSH1 0xA0 SHL SUB SWAP1 SWAP3 AND PUSH1 0x20 SWAP3 DUP4 MUL SWAP2 SWAP1 SWAP2 ADD SWAP1 SWAP2 ADD MSTORE DUP3 PUSH1 0x3 PUSH1 0x20 MUL ADD MLOAD DUP2 PUSH1 0x3 DUP2 MLOAD DUP2 LT PUSH2 0x11D8 JUMPI PUSH2 0x11D8 PUSH2 0x1B92 JUMP JUMPDEST PUSH1 0x20 MUL PUSH1 0x20 ADD ADD SWAP1 PUSH1 0x1 PUSH1 0x1 PUSH1 0xA0 SHL SUB AND SWAP1 DUP2 PUSH1 0x1 PUSH1 0x1 PUSH1 0xA0 SHL SUB AND DUP2 MSTORE POP POP JUMPDEST PUSH1 0x40 MLOAD PUSH4 0xD06CA61F PUSH1 0xE0 SHL DUP2 MSTORE PUSH1 0x1 PUSH1 0x1 PUSH1 0xA0 SHL SUB DUP7 AND SWAP1 PUSH4 0xD06CA61F SWAP1 PUSH2 0x1227 SWAP1 DUP8 SWAP1 DUP6 SWAP1 PUSH1 0x4 ADD PUSH2 0x1BA8 JUMP JUMPDEST PUSH1 0x0 PUSH1 0x40 MLOAD DUP1 DUP4 SUB DUP2 DUP7 GAS STATICCALL SWAP3 POP POP POP DUP1 ISZERO PUSH2 0x1265 JUMPI POP PUSH1 0x40 MLOAD RETURNDATASIZE PUSH1 0x0 DUP3 RETURNDATACOPY PUSH1 0x1F RETURNDATASIZE SWAP1 DUP2 ADD PUSH1 0x1F NOT AND DUP3 ADD PUSH1 0x40 MSTORE PUSH2 0x1262 SWAP2 SWAP1 DUP2 ADD SWAP1 PUSH2 0x1BC1 JUMP JUMPDEST PUSH1 0x1 JUMPDEST PUSH2 0x1273 JUMPI PUSH1 0x0 SWAP2 POP POP PUSH2 0x524 JUMP JUMPDEST DUP2 MLOAD DUP2 SWAP1 PUSH2 0x1282 SWAP1 PUSH1 0x1 PUSH2 0x1423 JUMP JUMPDEST DUP2 MLOAD DUP2 LT PUSH2 0x517 JUMPI PUSH2 0x517 PUSH2 0x1B92 JUMP JUMPDEST PUSH1 0x0 SLOAD PUSH1 0x1 PUSH1 0x1 PUSH1 0xA0 SHL SUB AND CALLER EQ PUSH2 0x12BC JUMPI PUSH1 0x40 MLOAD PUSH3 0x461BCD PUSH1 0xE5 SHL DUP2 MSTORE PUSH1 0x4 ADD PUSH2 0x8BD SWAP1 PUSH2 0x1C76 JUMP JUMPDEST PUSH1 0x1 PUSH1 0x1 PUSH1 0xA0 SHL SUB DUP2 AND PUSH2 0x1321 JUMPI PUSH1 0x40 MLOAD PUSH3 0x461BCD PUSH1 0xE5 SHL DUP2 MSTORE PUSH1 0x20 PUSH1 0x4 DUP3 ADD MSTORE PUSH1 0x26 PUSH1 0x24 DUP3 ADD MSTORE PUSH32 0x4F776E61626C653A206E6577206F776E657220697320746865207A65726F2061 PUSH1 0x44 DUP3 ADD MSTORE PUSH6 0x646472657373 PUSH1 0xD0 SHL PUSH1 0x64 DUP3 ADD MSTORE PUSH1 0x84 ADD PUSH2 0x8BD JUMP JUMPDEST PUSH2 0x132A DUP2 PUSH2 0x132D JUMP JUMPDEST POP JUMP JUMPDEST PUSH1 0x0 DUP1 SLOAD PUSH1 0x1 PUSH1 0x1 PUSH1 0xA0 SHL SUB DUP4 DUP2 AND PUSH1 0x1 PUSH1 0x1 PUSH1 0xA0 SHL SUB NOT DUP4 AND DUP2 OR DUP5 SSTORE PUSH1 0x40 MLOAD SWAP2 SWAP1 SWAP3 AND SWAP3 DUP4 SWAP2 PUSH32 0x8BE0079C531659141344CD1FD0A4F28419497F9722A3DAAFE3B4186F6B6457E0 SWAP2 SWAP1 LOG3 POP POP JUMP JUMPDEST PUSH1 0x40 MLOAD PUSH1 0x1 PUSH1 0x1 PUSH1 0xA0 SHL SUB DUP1 DUP6 AND PUSH1 0x24 DUP4 ADD MSTORE DUP4 AND PUSH1 0x44 DUP3 ADD MSTORE PUSH1 0x64 DUP2 ADD DUP3 SWAP1 MSTORE PUSH2 0x13E8 SWAP1 DUP6 SWAP1 PUSH4 0x23B872DD PUSH1 0xE0 SHL SWAP1 PUSH1 0x84 ADD JUMPDEST PUSH1 0x40 DUP1 MLOAD PUSH1 0x1F NOT DUP2 DUP5 SUB ADD DUP2 MSTORE SWAP2 SWAP1 MSTORE PUSH1 0x20 DUP2 ADD DUP1 MLOAD PUSH1 0x1 PUSH1 0x1 PUSH1 0xE0 SHL SUB AND PUSH1 0x1 PUSH1 0x1 PUSH1 0xE0 SHL SUB NOT SWAP1 SWAP4 AND SWAP3 SWAP1 SWAP3 OR SWAP1 SWAP2 MSTORE PUSH2 0x1438 JUMP JUMPDEST POP POP POP POP JUMP JUMPDEST PUSH1 0x40 MLOAD PUSH1 0x1 PUSH1 0x1 PUSH1 0xA0 SHL SUB DUP4 AND PUSH1 0x24 DUP3 ADD MSTORE PUSH1 0x44 DUP2 ADD DUP3 SWAP1 MSTORE PUSH2 0x141E SWAP1 DUP5 SWAP1 PUSH4 0xA9059CBB PUSH1 0xE0 SHL SWAP1 PUSH1 0x64 ADD PUSH2 0x13B1 JUMP JUMPDEST POP POP POP JUMP JUMPDEST PUSH1 0x0 PUSH2 0x142F DUP3 DUP5 PUSH2 0x1D09 JUMP JUMPDEST SWAP1 POP JUMPDEST SWAP3 SWAP2 POP POP JUMP JUMPDEST PUSH1 0x0 PUSH2 0x148D DUP3 PUSH1 0x40 MLOAD DUP1 PUSH1 0x40 ADD PUSH1 0x40 MSTORE DUP1 PUSH1 0x20 DUP2 MSTORE PUSH1 0x20 ADD PUSH32 0x5361666545524332303A206C6F772D6C6576656C2063616C6C206661696C6564 DUP2 MSTORE POP DUP6 PUSH1 0x1 PUSH1 0x1 PUSH1 0xA0 SHL SUB AND PUSH2 0x150A SWAP1 SWAP3 SWAP2 SWAP1 PUSH4 0xFFFFFFFF AND JUMP JUMPDEST DUP1 MLOAD SWAP1 SWAP2 POP ISZERO PUSH2 0x141E JUMPI DUP1 DUP1 PUSH1 0x20 ADD SWAP1 MLOAD DUP2 ADD SWAP1 PUSH2 0x14AB SWAP2 SWAP1 PUSH2 0x1CAB JUMP JUMPDEST PUSH2 0x141E JUMPI PUSH1 0x40 MLOAD PUSH3 0x461BCD PUSH1 0xE5 SHL DUP2 MSTORE PUSH1 0x20 PUSH1 0x4 DUP3 ADD MSTORE PUSH1 0x2A PUSH1 0x24 DUP3 ADD MSTORE PUSH32 0x5361666545524332303A204552433230206F7065726174696F6E20646964206E PUSH1 0x44 DUP3 ADD MSTORE PUSH10 0x1BDD081CDD58D8D95959 PUSH1 0xB2 SHL PUSH1 0x64 DUP3 ADD MSTORE PUSH1 0x84 ADD PUSH2 0x8BD JUMP JUMPDEST PUSH1 0x60 PUSH2 0x1519 DUP5 DUP5 PUSH1 0x0 DUP6 PUSH2 0x1521 JUMP JUMPDEST SWAP5 SWAP4 POP POP POP POP JUMP JUMPDEST PUSH1 0x60 DUP3 SELFBALANCE LT ISZERO PUSH2 0x1582 JUMPI PUSH1 0x40 MLOAD PUSH3 0x461BCD PUSH1 0xE5 SHL DUP2 MSTORE PUSH1 0x20 PUSH1 0x4 DUP3 ADD MSTORE PUSH1 0x26 PUSH1 0x24 DUP3 ADD MSTORE PUSH32 0x416464726573733A20696E73756666696369656E742062616C616E636520666F PUSH1 0x44 DUP3 ADD MSTORE PUSH6 0x1C8818D85B1B PUSH1 0xD2 SHL PUSH1 0x64 DUP3 ADD MSTORE PUSH1 0x84 ADD PUSH2 0x8BD JUMP JUMPDEST PUSH1 0x1 PUSH1 0x1 PUSH1 0xA0 SHL SUB DUP6 AND EXTCODESIZE PUSH2 0x15D9 JUMPI PUSH1 0x40 MLOAD PUSH3 0x461BCD PUSH1 0xE5 SHL DUP2 MSTORE PUSH1 0x20 PUSH1 0x4 DUP3 ADD MSTORE PUSH1 0x1D PUSH1 0x24 DUP3 ADD MSTORE PUSH32 0x416464726573733A2063616C6C20746F206E6F6E2D636F6E7472616374000000 PUSH1 0x44 DUP3 ADD MSTORE PUSH1 0x64 ADD PUSH2 0x8BD JUMP JUMPDEST PUSH1 0x0 DUP1 DUP7 PUSH1 0x1 PUSH1 0x1 PUSH1 0xA0 SHL SUB AND DUP6 DUP8 PUSH1 0x40 MLOAD PUSH2 0x15F5 SWAP2 SWAP1 PUSH2 0x1E5A JUMP JUMPDEST PUSH1 0x0 PUSH1 0x40 MLOAD DUP1 DUP4 SUB DUP2 DUP6 DUP8 GAS CALL SWAP3 POP POP POP RETURNDATASIZE DUP1 PUSH1 0x0 DUP2 EQ PUSH2 0x1632 JUMPI PUSH1 0x40 MLOAD SWAP2 POP PUSH1 0x1F NOT PUSH1 0x3F RETURNDATASIZE ADD AND DUP3 ADD PUSH1 0x40 MSTORE RETURNDATASIZE DUP3 MSTORE RETURNDATASIZE PUSH1 0x0 PUSH1 0x20 DUP5 ADD RETURNDATACOPY PUSH2 0x1637 JUMP JUMPDEST PUSH1 0x60 SWAP2 POP JUMPDEST POP SWAP2 POP SWAP2 POP PUSH2 0x1647 DUP3 DUP3 DUP7 PUSH2 0x1652 JUMP JUMPDEST SWAP8 SWAP7 POP POP POP POP POP POP POP JUMP JUMPDEST PUSH1 0x60 DUP4 ISZERO PUSH2 0x1661 JUMPI POP DUP2 PUSH2 0x524 JUMP JUMPDEST DUP3 MLOAD ISZERO PUSH2 0x1671 JUMPI DUP3 MLOAD DUP1 DUP5 PUSH1 0x20 ADD REVERT JUMPDEST DUP2 PUSH1 0x40 MLOAD PUSH3 0x461BCD PUSH1 0xE5 SHL DUP2 MSTORE PUSH1 0x4 ADD PUSH2 0x8BD SWAP2 SWAP1 PUSH2 0x1E76 JUMP JUMPDEST PUSH1 0x40 MLOAD DUP1 PUSH1 0x80 ADD PUSH1 0x40 MSTORE DUP1 PUSH1 0x4 SWAP1 PUSH1 0x20 DUP3 MUL DUP1 CALLDATASIZE DUP4 CALLDATACOPY POP SWAP2 SWAP3 SWAP2 POP POP JUMP JUMPDEST PUSH1 0x0 PUSH1 0x20 DUP3 DUP5 SUB SLT ISZERO PUSH2 0x16BB JUMPI PUSH1 0x0 DUP1 REVERT JUMPDEST POP CALLDATALOAD SWAP2 SWAP1 POP JUMP JUMPDEST PUSH1 0x1 PUSH1 0x1 PUSH1 0xA0 SHL SUB DUP2 AND DUP2 EQ PUSH2 0x132A JUMPI PUSH1 0x0 DUP1 REVERT JUMPDEST PUSH4 0x4E487B71 PUSH1 0xE0 SHL PUSH1 0x0 MSTORE PUSH1 0x41 PUSH1 0x4 MSTORE PUSH1 0x24 PUSH1 0x0 REVERT JUMPDEST PUSH1 0x40 MLOAD PUSH1 0x1F DUP3 ADD PUSH1 0x1F NOT AND DUP2 ADD PUSH8 0xFFFFFFFFFFFFFFFF DUP2 GT DUP3 DUP3 LT OR ISZERO PUSH2 0x1716 JUMPI PUSH2 0x1716 PUSH2 0x16D7 JUMP JUMPDEST PUSH1 0x40 MSTORE SWAP2 SWAP1 POP JUMP JUMPDEST DUP1 CALLDATALOAD PUSH2 0x1729 DUP2 PUSH2 0x16C2 JUMP JUMPDEST SWAP2 SWAP1 POP JUMP JUMPDEST PUSH1 0x0 DUP1 PUSH1 0x0 PUSH1 0xC0 DUP5 DUP7 SUB SLT ISZERO PUSH2 0x1743 JUMPI PUSH1 0x0 DUP1 REVERT JUMPDEST DUP4 CALLDATALOAD PUSH2 0x174E DUP2 PUSH2 0x16C2 JUMP JUMPDEST SWAP3 POP PUSH1 0x20 DUP5 DUP2 ADD CALLDATALOAD SWAP3 POP PUSH1 0x5F DUP6 ADD DUP7 SGT PUSH2 0x1767 JUMPI PUSH1 0x0 DUP1 REVERT JUMPDEST PUSH1 0x40 MLOAD PUSH1 0x80 DUP2 ADD DUP2 DUP2 LT PUSH8 0xFFFFFFFFFFFFFFFF DUP3 GT OR ISZERO PUSH2 0x178A JUMPI PUSH2 0x178A PUSH2 0x16D7 JUMP JUMPDEST PUSH1 0x40 MSTORE DUP1 PUSH1 0xC0 DUP8 ADD DUP9 DUP2 GT ISZERO PUSH2 0x179F JUMPI PUSH1 0x0 DUP1 REVERT JUMPDEST PUSH1 0x40 DUP9 ADD JUMPDEST DUP2 DUP2 LT ISZERO PUSH2 0x17C4 JUMPI DUP1 CALLDATALOAD PUSH2 0x17B7 DUP2 PUSH2 0x16C2 JUMP JUMPDEST DUP4 MSTORE SWAP2 DUP5 ADD SWAP2 DUP5 ADD PUSH2 0x17A4 JUMP JUMPDEST POP POP POP DUP1 SWAP3 POP POP POP SWAP3 POP SWAP3 POP SWAP3 JUMP JUMPDEST PUSH1 0x0 DUP1 PUSH1 0x0 PUSH1 0x60 DUP5 DUP7 SUB SLT ISZERO PUSH2 0x17E8 JUMPI PUSH1 0x0 DUP1 REVERT JUMPDEST DUP4 CALLDATALOAD PUSH2 0x17F3 DUP2 PUSH2 0x16C2 JUMP JUMPDEST SWAP3 POP PUSH1 0x20 DUP5 ADD CALLDATALOAD PUSH2 0x1803 DUP2 PUSH2 0x16C2 JUMP JUMPDEST SWAP3 SWAP6 SWAP3 SWAP5 POP POP POP PUSH1 0x40 SWAP2 SWAP1 SWAP2 ADD CALLDATALOAD SWAP1 JUMP JUMPDEST PUSH1 0x0 DUP2 MLOAD DUP1 DUP5 MSTORE PUSH1 0x20 DUP1 DUP6 ADD SWAP5 POP DUP1 DUP5 ADD PUSH1 0x0 JUMPDEST DUP4 DUP2 LT ISZERO PUSH2 0x184D JUMPI DUP2 MLOAD PUSH1 0x1 PUSH1 0x1 PUSH1 0xA0 SHL SUB AND DUP8 MSTORE SWAP6 DUP3 ADD SWAP6 SWAP1 DUP3 ADD SWAP1 PUSH1 0x1 ADD PUSH2 0x1828 JUMP JUMPDEST POP SWAP5 SWAP6 SWAP5 POP POP POP POP POP JUMP JUMPDEST PUSH1 0x1 PUSH1 0x1 PUSH1 0xA0 SHL SUB DUP5 AND DUP2 MSTORE PUSH1 0x60 PUSH1 0x20 DUP3 ADD DUP2 SWAP1 MSTORE PUSH1 0x0 SWAP1 PUSH2 0x187C SWAP1 DUP4 ADD DUP6 PUSH2 0x1814 JUMP JUMPDEST SWAP1 POP DUP3 PUSH1 0x40 DUP4 ADD MSTORE SWAP5 SWAP4 POP POP POP POP JUMP JUMPDEST PUSH1 0x0 PUSH8 0xFFFFFFFFFFFFFFFF DUP3 GT ISZERO PUSH2 0x18A6 JUMPI PUSH2 0x18A6 PUSH2 0x16D7 JUMP JUMPDEST POP PUSH1 0x5 SHL PUSH1 0x20 ADD SWAP1 JUMP JUMPDEST PUSH1 0x0 DUP1 PUSH1 0x0 DUP1 PUSH1 0x0 DUP1 PUSH1 0xC0 DUP8 DUP10 SUB SLT ISZERO PUSH2 0x18C9 JUMPI PUSH1 0x0 DUP1 REVERT JUMPDEST DUP7 CALLDATALOAD PUSH2 0x18D4 DUP2 PUSH2 0x16C2 JUMP JUMPDEST SWAP6 POP PUSH1 0x20 DUP8 DUP2 ADD CALLDATALOAD SWAP6 POP PUSH1 0x40 DUP9 ADD CALLDATALOAD SWAP5 POP PUSH1 0x60 DUP9 ADD CALLDATALOAD PUSH8 0xFFFFFFFFFFFFFFFF DUP2 GT ISZERO PUSH2 0x18FF JUMPI PUSH1 0x0 DUP1 REVERT JUMPDEST DUP9 ADD PUSH1 0x1F DUP2 ADD DUP11 SGT PUSH2 0x1910 JUMPI PUSH1 0x0 DUP1 REVERT JUMPDEST DUP1 CALLDATALOAD PUSH2 0x1923 PUSH2 0x191E DUP3 PUSH2 0x188C JUMP JUMPDEST PUSH2 0x16ED JUMP JUMPDEST DUP2 DUP2 MSTORE PUSH1 0x5 SWAP2 SWAP1 SWAP2 SHL DUP3 ADD DUP4 ADD SWAP1 DUP4 DUP2 ADD SWAP1 DUP13 DUP4 GT ISZERO PUSH2 0x1942 JUMPI PUSH1 0x0 DUP1 REVERT JUMPDEST SWAP3 DUP5 ADD SWAP3 JUMPDEST DUP3 DUP5 LT ISZERO PUSH2 0x1969 JUMPI DUP4 CALLDATALOAD PUSH2 0x195A DUP2 PUSH2 0x16C2 JUMP JUMPDEST DUP3 MSTORE SWAP3 DUP5 ADD SWAP3 SWAP1 DUP5 ADD SWAP1 PUSH2 0x1947 JUMP JUMPDEST DUP1 SWAP8 POP POP POP POP POP POP PUSH2 0x197D PUSH1 0x80 DUP9 ADD PUSH2 0x171E JUMP JUMPDEST SWAP2 POP PUSH1 0xA0 DUP8 ADD CALLDATALOAD SWAP1 POP SWAP3 SWAP6 POP SWAP3 SWAP6 POP SWAP3 SWAP6 JUMP JUMPDEST PUSH1 0x20 DUP1 DUP3 MSTORE DUP3 MLOAD DUP3 DUP3 ADD DUP2 SWAP1 MSTORE PUSH1 0x0 SWAP2 SWAP1 DUP5 DUP3 ADD SWAP1 PUSH1 0x40 DUP6 ADD SWAP1 DUP5 JUMPDEST DUP2 DUP2 LT ISZERO PUSH2 0x19C8 JUMPI DUP4 MLOAD DUP4 MSTORE SWAP3 DUP5 ADD SWAP3 SWAP2 DUP5 ADD SWAP2 PUSH1 0x1 ADD PUSH2 0x19AC JUMP JUMPDEST POP SWAP1 SWAP7 SWAP6 POP POP POP POP POP POP JUMP JUMPDEST PUSH1 0x0 DUP1 PUSH1 0x40 DUP4 DUP6 SUB SLT ISZERO PUSH2 0x19E7 JUMPI PUSH1 0x0 DUP1 REVERT JUMPDEST DUP3 CALLDATALOAD PUSH2 0x19F2 DUP2 PUSH2 0x16C2 JUMP JUMPDEST SWAP5 PUSH1 0x20 SWAP4 SWAP1 SWAP4 ADD CALLDATALOAD SWAP4 POP POP POP JUMP JUMPDEST PUSH1 0x0 DUP1 PUSH1 0x40 DUP4 DUP6 SUB SLT ISZERO PUSH2 0x1A13 JUMPI PUSH1 0x0 DUP1 REVERT JUMPDEST DUP3 CALLDATALOAD PUSH2 0x1A1E DUP2 PUSH2 0x16C2 JUMP JUMPDEST SWAP2 POP PUSH1 0x20 DUP4 ADD CALLDATALOAD PUSH2 0x1A2E DUP2 PUSH2 0x16C2 JUMP JUMPDEST DUP1 SWAP2 POP POP SWAP3 POP SWAP3 SWAP1 POP JUMP JUMPDEST PUSH1 0x40 DUP1 DUP3 MSTORE DUP4 MLOAD SWAP1 DUP3 ADD DUP2 SWAP1 MSTORE PUSH1 0x0 SWAP1 PUSH1 0x20 SWAP1 PUSH1 0x60 DUP5 ADD SWAP1 DUP3 DUP8 ADD DUP5 DUP1 JUMPDEST DUP4 DUP2 LT ISZERO PUSH2 0x1AA0 JUMPI DUP3 MLOAD DUP6 DUP4 JUMPDEST PUSH1 0x4 DUP2 LT ISZERO PUSH2 0x1A8A JUMPI DUP3 MLOAD PUSH1 0x1 PUSH1 0x1 PUSH1 0xA0 SHL SUB AND DUP3 MSTORE SWAP2 DUP9 ADD SWAP2 SWAP1 DUP9 ADD SWAP1 PUSH1 0x1 ADD PUSH2 0x1A64 JUMP JUMPDEST POP POP POP PUSH1 0x80 SWAP5 SWAP1 SWAP5 ADD SWAP4 SWAP2 DUP6 ADD SWAP2 PUSH1 0x1 ADD PUSH2 0x1A57 JUMP JUMPDEST POP POP POP POP SWAP3 ADD SWAP3 SWAP1 SWAP3 MSTORE SWAP3 SWAP2 POP POP JUMP JUMPDEST PUSH1 0x0 DUP1 PUSH1 0x0 DUP1 PUSH1 0x0 PUSH1 0xA0 DUP7 DUP9 SUB SLT ISZERO PUSH2 0x1AC8 JUMPI PUSH1 0x0 DUP1 REVERT JUMPDEST DUP6 CALLDATALOAD SWAP5 POP PUSH1 0x20 DUP7 ADD CALLDATALOAD SWAP4 POP PUSH1 0x40 DUP7 ADD CALLDATALOAD PUSH2 0x1AE1 DUP2 PUSH2 0x16C2 JUMP JUMPDEST SWAP3 POP PUSH1 0x60 DUP7 ADD CALLDATALOAD PUSH2 0x1AF1 DUP2 PUSH2 0x16C2 JUMP JUMPDEST SWAP5 SWAP8 SWAP4 SWAP7 POP SWAP2 SWAP5 PUSH1 0x80 ADD CALLDATALOAD SWAP3 SWAP2 POP POP JUMP JUMPDEST PUSH1 0x0 JUMPDEST DUP4 DUP2 LT ISZERO PUSH2 0x1B1D JUMPI DUP2 DUP2 ADD MLOAD DUP4 DUP3 ADD MSTORE PUSH1 0x20 ADD PUSH2 0x1B05 JUMP JUMPDEST DUP4 DUP2 GT ISZERO PUSH2 0x13E8 JUMPI POP POP PUSH1 0x0 SWAP2 ADD MSTORE JUMP JUMPDEST PUSH1 0x0 DUP2 MLOAD DUP1 DUP5 MSTORE PUSH2 0x1B46 DUP2 PUSH1 0x20 DUP7 ADD PUSH1 0x20 DUP7 ADD PUSH2 0x1B02 JUMP JUMPDEST PUSH1 0x1F ADD PUSH1 0x1F NOT AND SWAP3 SWAP1 SWAP3 ADD PUSH1 0x20 ADD SWAP3 SWAP2 POP POP JUMP JUMPDEST DUP3 ISZERO ISZERO DUP2 MSTORE PUSH1 0x40 PUSH1 0x20 DUP3 ADD MSTORE PUSH1 0x0 PUSH2 0x1519 PUSH1 0x40 DUP4 ADD DUP5 PUSH2 0x1B2E JUMP JUMPDEST PUSH1 0x0 PUSH1 0x20 DUP3 DUP5 SUB SLT ISZERO PUSH2 0x1B87 JUMPI PUSH1 0x0 DUP1 REVERT JUMPDEST DUP2 CALLDATALOAD PUSH2 0x524 DUP2 PUSH2 0x16C2 JUMP JUMPDEST PUSH4 0x4E487B71 PUSH1 0xE0 SHL PUSH1 0x0 MSTORE PUSH1 0x32 PUSH1 0x4 MSTORE PUSH1 0x24 PUSH1 0x0 REVERT JUMPDEST DUP3 DUP2 MSTORE PUSH1 0x40 PUSH1 0x20 DUP3 ADD MSTORE PUSH1 0x0 PUSH2 0x1519 PUSH1 0x40 DUP4 ADD DUP5 PUSH2 0x1814 JUMP JUMPDEST PUSH1 0x0 PUSH1 0x20 DUP1 DUP4 DUP6 SUB SLT ISZERO PUSH2 0x1BD4 JUMPI PUSH1 0x0 DUP1 REVERT JUMPDEST DUP3 MLOAD PUSH8 0xFFFFFFFFFFFFFFFF DUP2 GT ISZERO PUSH2 0x1BEB JUMPI PUSH1 0x0 DUP1 REVERT JUMPDEST DUP4 ADD PUSH1 0x1F DUP2 ADD DUP6 SGT PUSH2 0x1BFC JUMPI PUSH1 0x0 DUP1 REVERT JUMPDEST DUP1 MLOAD PUSH2 0x1C0A PUSH2 0x191E DUP3 PUSH2 0x188C JUMP JUMPDEST DUP2 DUP2 MSTORE PUSH1 0x5 SWAP2 SWAP1 SWAP2 SHL DUP3 ADD DUP4 ADD SWAP1 DUP4 DUP2 ADD SWAP1 DUP8 DUP4 GT ISZERO PUSH2 0x1C29 JUMPI PUSH1 0x0 DUP1 REVERT JUMPDEST SWAP3 DUP5 ADD SWAP3 JUMPDEST DUP3 DUP5 LT ISZERO PUSH2 0x1647 JUMPI DUP4 MLOAD DUP3 MSTORE SWAP3 DUP5 ADD SWAP3 SWAP1 DUP5 ADD SWAP1 PUSH2 0x1C2E JUMP JUMPDEST PUSH4 0x4E487B71 PUSH1 0xE0 SHL PUSH1 0x0 MSTORE PUSH1 0x11 PUSH1 0x4 MSTORE PUSH1 0x24 PUSH1 0x0 REVERT JUMPDEST PUSH1 0x0 PUSH1 0x1 DUP3 ADD PUSH2 0x1C6F JUMPI PUSH2 0x1C6F PUSH2 0x1C47 JUMP JUMPDEST POP PUSH1 0x1 ADD SWAP1 JUMP JUMPDEST PUSH1 0x20 DUP1 DUP3 MSTORE DUP2 DUP2 ADD MSTORE PUSH32 0x4F776E61626C653A2063616C6C6572206973206E6F7420746865206F776E6572 PUSH1 0x40 DUP3 ADD MSTORE PUSH1 0x60 ADD SWAP1 JUMP JUMPDEST PUSH1 0x0 PUSH1 0x20 DUP3 DUP5 SUB SLT ISZERO PUSH2 0x1CBD JUMPI PUSH1 0x0 DUP1 REVERT JUMPDEST DUP2 MLOAD DUP1 ISZERO ISZERO DUP2 EQ PUSH2 0x524 JUMPI PUSH1 0x0 DUP1 REVERT JUMPDEST DUP6 DUP2 MSTORE DUP5 PUSH1 0x20 DUP3 ADD MSTORE PUSH1 0xA0 PUSH1 0x40 DUP3 ADD MSTORE PUSH1 0x0 PUSH2 0x1CEC PUSH1 0xA0 DUP4 ADD DUP7 PUSH2 0x1814 JUMP JUMPDEST PUSH1 0x1 PUSH1 0x1 PUSH1 0xA0 SHL SUB SWAP5 SWAP1 SWAP5 AND PUSH1 0x60 DUP4 ADD MSTORE POP PUSH1 0x80 ADD MSTORE SWAP4 SWAP3 POP POP POP JUMP JUMPDEST PUSH1 0x0 DUP3 DUP3 LT ISZERO PUSH2 0x1D1B JUMPI PUSH2 0x1D1B PUSH2 0x1C47 JUMP JUMPDEST POP SUB SWAP1 JUMP JUMPDEST PUSH1 0x1 DUP2 DUP2 JUMPDEST DUP1 DUP6 GT ISZERO PUSH2 0xF3A JUMPI DUP2 PUSH1 0x0 NOT DIV DUP3 GT ISZERO PUSH2 0x1D41 JUMPI PUSH2 0x1D41 PUSH2 0x1C47 JUMP JUMPDEST DUP1 DUP6 AND ISZERO PUSH2 0x1D4E JUMPI SWAP2 DUP2 MUL SWAP2 JUMPDEST SWAP4 DUP5 SHR SWAP4 SWAP1 DUP1 MUL SWAP1 PUSH2 0x1D25 JUMP JUMPDEST PUSH1 0x0 DUP3 PUSH2 0x1D6A JUMPI POP PUSH1 0x1 PUSH2 0x1432 JUMP JUMPDEST DUP2 PUSH2 0x1D77 JUMPI POP PUSH1 0x0 PUSH2 0x1432 JUMP JUMPDEST DUP2 PUSH1 0x1 DUP2 EQ PUSH2 0x1D8D JUMPI PUSH1 0x2 DUP2 EQ PUSH2 0x1D97 JUMPI PUSH2 0x1DB3 JUMP JUMPDEST PUSH1 0x1 SWAP2 POP POP PUSH2 0x1432 JUMP JUMPDEST PUSH1 0xFF DUP5 GT ISZERO PUSH2 0x1DA8 JUMPI PUSH2 0x1DA8 PUSH2 0x1C47 JUMP JUMPDEST POP POP PUSH1 0x1 DUP3 SHL PUSH2 0x1432 JUMP JUMPDEST POP PUSH1 0x20 DUP4 LT PUSH2 0x133 DUP4 LT AND PUSH1 0x4E DUP5 LT PUSH1 0xB DUP5 LT AND OR ISZERO PUSH2 0x1DD6 JUMPI POP DUP2 DUP2 EXP PUSH2 0x1432 JUMP JUMPDEST PUSH2 0x1DE0 DUP4 DUP4 PUSH2 0x1D20 JUMP JUMPDEST DUP1 PUSH1 0x0 NOT DIV DUP3 GT ISZERO PUSH2 0x1DF4 JUMPI PUSH2 0x1DF4 PUSH2 0x1C47 JUMP JUMPDEST MUL SWAP4 SWAP3 POP POP POP JUMP JUMPDEST PUSH1 0x0 PUSH2 0x142F PUSH1 0xFF DUP5 AND DUP4 PUSH2 0x1D5B JUMP JUMPDEST PUSH1 0x0 DUP3 NOT DUP3 GT ISZERO PUSH2 0x1E1E JUMPI PUSH2 0x1E1E PUSH2 0x1C47 JUMP JUMPDEST POP ADD SWAP1 JUMP JUMPDEST DUP5 DUP2 MSTORE DUP4 PUSH1 0x20 DUP3 ADD MSTORE PUSH1 0x1 DUP1 PUSH1 0xA0 SHL SUB DUP4 AND PUSH1 0x40 DUP3 ADD MSTORE PUSH1 0x80 PUSH1 0x60 DUP3 ADD MSTORE PUSH1 0x0 PUSH2 0x1E50 PUSH1 0x80 DUP4 ADD DUP5 PUSH2 0x1814 JUMP JUMPDEST SWAP7 SWAP6 POP POP POP POP POP POP JUMP JUMPDEST PUSH1 0x0 DUP3 MLOAD PUSH2 0x1E6C DUP2 DUP5 PUSH1 0x20 DUP8 ADD PUSH2 0x1B02 JUMP JUMPDEST SWAP2 SWAP1 SWAP2 ADD SWAP3 SWAP2 POP POP JUMP JUMPDEST PUSH1 0x20 DUP2 MSTORE PUSH1 0x0 PUSH2 0x142F PUSH1 0x20 DUP4 ADD DUP5 PUSH2 0x1B2E JUMP INVALID LOG2 PUSH5 0x6970667358 0x22 SLT KECCAK256 SWAP11 PUSH32 0xBB4B79E230C5070BB3E39CD723E0A6B5C92E2009998610B3617002E306746473 PUSH16 0x6C634300080D00330000000000000000 "
        },
        "methodIdentifiers": {
          "checker(uint256,uint256,address,address,uint256)": "e34ca65d",
          "connectorTokens(uint256)": "19b64015",
          "emergencyWithdraw(address,uint256)": "95ccea67",
          "findBestPathExactIn(address,address,uint256)": "65c53d42",
          "findBestPathExactOut(address,address,uint256)": "bd646432",
          "getAllPaths(address,address)": "d070166d",
          "getAmountIn(address,uint256,address[4])": "4c4f4d25",
          "getAmountOut(address,uint256,address[4])": "e82cc3a2",
          "owner()": "8da5cb5b",
          "renounceOwnership()": "715018a6",
          "routers(uint256)": "4e9c1118",
          "swapExactIn(address,uint256,uint256,address[],address,uint256)": "892e20f4",
          "transferOwnership(address)": "f2fde38b"
        }
      }
    }
  }
}