{
  "_format": "hh-sol-artifact-1",
  "contractName": "Resolver",
  "sourceName": "contracts/Resolver.sol",
  "abi": [
    {
      "anonymous": false,
      "inputs": [
        {
          "indexed": true,
          "internalType": "address",
          "name": "previousOwner",
          "type": "address"
        },
        {
          "indexed": true,
          "internalType": "address",
          "name": "newOwner",
          "type": "address"
        }
      ],
      "name": "OwnershipTransferred",
      "type": "event"
    },
    {
      "inputs": [
        {
          "internalType": "uint256",
          "name": "_vaultId",
          "type": "uint256"
        },
        {
          "internalType": "uint256",
          "name": "_orderId",
          "type": "uint256"
        },
        {
          "internalType": "address",
          "name": "_fromToken",
          "type": "address"
        },
        {
          "internalType": "address",
          "name": "_toToken",
          "type": "address"
        },
        {
          "internalType": "uint256",
          "name": "_fromAmount",
          "type": "uint256"
        }
      ],
      "name": "checker",
      "outputs": [
        {
          "internalType": "bool",
          "name": "",
          "type": "bool"
        },
        {
          "internalType": "bytes",
          "name": "",
          "type": "bytes"
        }
      ],
      "stateMutability": "view",
      "type": "function"
    },
    {
      "inputs": [
        {
          "internalType": "uint256",
          "name": "",
          "type": "uint256"
        }
      ],
      "name": "connectorTokens",
      "outputs": [
        {
          "internalType": "address",
          "name": "",
          "type": "address"
        }
      ],
      "stateMutability": "view",
      "type": "function"
    },
    {
      "inputs": [
        {
          "internalType": "contract IERC20",
          "name": "_token",
          "type": "address"
        },
        {
          "internalType": "uint256",
          "name": "_amount",
          "type": "uint256"
        }
      ],
      "name": "emergencyWithdraw",
      "outputs": [],
      "stateMutability": "nonpayable",
      "type": "function"
    },
    {
      "inputs": [
        {
          "internalType": "address",
          "name": "_fromToken",
          "type": "address"
        },
        {
          "internalType": "address",
          "name": "_toToken",
          "type": "address"
        },
        {
          "internalType": "uint256",
          "name": "_amountIn",
          "type": "uint256"
        }
      ],
      "name": "findBestPathExactIn",
      "outputs": [
        {
          "internalType": "address",
          "name": "",
          "type": "address"
        },
        {
          "internalType": "address[]",
          "name": "",
          "type": "address[]"
        },
        {
          "internalType": "uint256",
          "name": "",
          "type": "uint256"
        }
      ],
      "stateMutability": "view",
      "type": "function"
    },
    {
      "inputs": [
        {
          "internalType": "address",
          "name": "_fromToken",
          "type": "address"
        },
        {
          "internalType": "address",
          "name": "_toToken",
          "type": "address"
        },
        {
          "internalType": "uint256",
          "name": "_amountOut",
          "type": "uint256"
        }
      ],
      "name": "findBestPathExactOut",
      "outputs": [
        {
          "internalType": "address",
          "name": "",
          "type": "address"
        },
        {
          "internalType": "address[]",
          "name": "",
          "type": "address[]"
        },
        {
          "internalType": "uint256",
          "name": "",
          "type": "uint256"
        }
      ],
      "stateMutability": "view",
      "type": "function"
    },
    {
      "inputs": [
        {
          "internalType": "address",
          "name": "_fromToken",
          "type": "address"
        },
        {
          "internalType": "address",
          "name": "_toToken",
          "type": "address"
        }
      ],
      "name": "getAllPaths",
      "outputs": [
        {
          "internalType": "address[4][]",
          "name": "paths",
          "type": "address[4][]"
        },
        {
          "internalType": "uint256",
          "name": "pathCount",
          "type": "uint256"
        }
      ],
      "stateMutability": "view",
      "type": "function"
    },
    {
      "inputs": [
        {
          "internalType": "contract IUniswapV2Router02",
          "name": "_router",
          "type": "address"
        },
        {
          "internalType": "uint256",
          "name": "_amountOut",
          "type": "uint256"
        },
        {
          "internalType": "address[4]",
          "name": "_path",
          "type": "address[4]"
        }
      ],
      "name": "getAmountIn",
      "outputs": [
        {
          "internalType": "uint256",
          "name": "",
          "type": "uint256"
        }
      ],
      "stateMutability": "view",
      "type": "function"
    },
    {
      "inputs": [
        {
          "internalType": "contract IUniswapV2Router02",
          "name": "_router",
          "type": "address"
        },
        {
          "internalType": "uint256",
          "name": "_amountIn",
          "type": "uint256"
        },
        {
          "internalType": "address[4]",
          "name": "_path",
          "type": "address[4]"
        }
      ],
      "name": "getAmountOut",
      "outputs": [
        {
          "internalType": "uint256",
          "name": "",
          "type": "uint256"
        }
      ],
      "stateMutability": "view",
      "type": "function"
    },
    {
      "inputs": [],
      "name": "owner",
      "outputs": [
        {
          "internalType": "address",
          "name": "",
          "type": "address"
        }
      ],
      "stateMutability": "view",
      "type": "function"
    },
    {
      "inputs": [],
      "name": "renounceOwnership",
      "outputs": [],
      "stateMutability": "nonpayable",
      "type": "function"
    },
    {
      "inputs": [
        {
          "internalType": "uint256",
          "name": "",
          "type": "uint256"
        }
      ],
      "name": "routers",
      "outputs": [
        {
          "internalType": "contract IUniswapV2Router02",
          "name": "",
          "type": "address"
        }
      ],
      "stateMutability": "view",
      "type": "function"
    },
    {
      "inputs": [
        {
          "internalType": "contract IUniswapV2Router02",
          "name": "_router",
          "type": "address"
        },
        {
          "internalType": "uint256",
          "name": "_amountIn",
          "type": "uint256"
        },
        {
          "internalType": "uint256",
          "name": "_amountOutMin",
          "type": "uint256"
        },
        {
          "internalType": "address[]",
          "name": "_path",
          "type": "address[]"
        },
        {
          "internalType": "address",
          "name": "_to",
          "type": "address"
        },
        {
          "internalType": "uint256",
          "name": "_deadline",
          "type": "uint256"
        }
      ],
      "name": "swapExactIn",
      "outputs": [
        {
          "internalType": "uint256[]",
          "name": "",
          "type": "uint256[]"
        }
      ],
      "stateMutability": "nonpayable",
      "type": "function"
    },
    {
      "inputs": [
        {
          "internalType": "address",
          "name": "newOwner",
          "type": "address"
        }
      ],
      "name": "transferOwnership",
      "outputs": [],
      "stateMutability": "nonpayable",
      "type": "function"
    }
  ],
  "bytecode": "0x61014060405273a5e0829caced8ffdd4de3c43696c57f7d7a678ff6080908152731b02da8cb0d097eb8d57a175b88c7d8b4799750660a0527394930a328162957ff1dd48900af67b5439336cbd60c05273c0788a3ad43d79aa53b09c2eacc313a787d1d60760e05273a102072a4c07f06ec3b4900fdc4c7b80b6c5742961010052733a1d87f206d12415f5b0a33e786967680aab4f6d61012052620000a99060019060066200020c565b50604080516101208101825260008152738f3cf7ad23cd3cadbd9735aff958023239c6a0636020820152732791bca1f2de4661ed88a30c99a7a9449aa8417491810191909152730d500b1d8e8ef31e21c99d1db9a6444d3adf12706060820152737ceb23fd6bc0add59e62ac25578270cff1b9f619608082015273c2132d05d31c914a87c6611c10748aeb04b58e8f60a082015273831753dd7087cac61ab5644b308642cc1c33dc1360c082015273a3fa99a148fa48d14ed51d610c367c61876997f160e0820152731bfd67037b42cf73acf2047067bd4f2c47d9bfd66101008201526200019c9060029060096200020c565b50348015620001aa57600080fd5b50620001b633620001bc565b6200028d565b600080546001600160a01b038381166001600160a01b0319831681178455604051919092169283917f8be0079c531659141344cd1fd0a4f28419497f9722a3daafe3b4186f6b6457e09190a35050565b82805482825590600052602060002090810192821562000264579160200282015b828111156200026457825182546001600160a01b0319166001600160a01b039091161782556020909201916001909101906200022d565b506200027292915062000276565b5090565b5b8082111562000272576000815560010162000277565b611ebf806200029d6000396000f3fe608060405234801561001057600080fd5b50600436106100cf5760003560e01c80638da5cb5b1161008c578063d070166d11610066578063d070166d146101bb578063e34ca65d146101dc578063e82cc3a2146101fd578063f2fde38b1461021057600080fd5b80638da5cb5b1461018457806395ccea6714610195578063bd646432146101a857600080fd5b806319b64015146100d45780634c4f4d25146101045780634e9c11181461012557806365c53d4214610138578063715018a61461015a578063892e20f414610164575b600080fd5b6100e76100e23660046116a9565b610223565b6040516001600160a01b0390911681526020015b60405180910390f35b61011761011236600461172e565b61024d565b6040519081526020016100fb565b6100e76101333660046116a9565b61052b565b61014b6101463660046117d3565b61053b565b6040516100fb93929190611858565b610162610893565b005b6101776101723660046118b0565b6108d2565b6040516100fb9190611990565b6000546001600160a01b03166100e7565b6101626101a33660046119d4565b610a06565b61014b6101b63660046117d3565b610a5a565b6101ce6101c9366004611a00565b610b68565b6040516100fb929190611a39565b6101ef6101ea366004611ab0565b610f42565b6040516100fb929190611b5a565b61011761020b36600461172e565b610fbd565b61016261021e366004611b75565b611292565b6002818154811061023357600080fd5b6000918252602090912001546001600160a01b0316905081565b606081810151600091906001600160a01b031661039b5760408301516001600160a01b0316610301576040805160028082526060820183529091602083019080368337505084518251929350918391506000906102ac576102ac611b92565b6001600160a01b03929092166020928302919091018201528301518151829060019081106102dc576102dc611b92565b60200260200101906001600160a01b031690816001600160a01b031681525050610489565b6040805160038082526080820190925290602082016060803683375050845182519293509183915060009061033857610338611b92565b6001600160a01b039290921660209283029190910182015283015181518290600190811061036857610368611b92565b6001600160a01b03909216602092830291909101909101528260026020020151816002815181106102dc576102dc611b92565b60408051600480825260a082019092529060208201608080368337505084518251929350918391506000906103d2576103d2611b92565b6001600160a01b039290921660209283029190910182015283015181518290600190811061040257610402611b92565b6001600160a01b039092166020928302919091019091015282600260200201518160028151811061043557610435611b92565b6001600160a01b039092166020928302919091019091015282600360200201518160038151811061046857610468611b92565b60200260200101906001600160a01b031690816001600160a01b0316815250505b6040516307c0329d60e21b81526001600160a01b03861690631f00ca74906104b79087908590600401611ba8565b600060405180830381865afa9250505080156104f557506040513d6000823e601f3d908101601f191682016040526104f29190810190611bc1565b60015b61050457600019915050610524565b8060008151811061051757610517611b92565b6020026020010151925050505b9392505050565b6001818154811061023357600080fd5b6000606081808061054a61168b565b6000806105578b8b610b68565b9150915060005b6001548110156106475760005b828110156106345760006105c96001848154811061058b5761058b611b92565b9060005260206000200160009054906101000a90046001600160a01b03168d8785815181106105bc576105bc611b92565b6020026020010151610fbd565b90508781111561062157809750600183815481106105e9576105e9611b92565b60009182526020909120015485516001600160a01b03909116975085908390811061061657610616611b92565b602002602001015195505b508061062c81611c5d565b91505061056b565b508061063f81611c5d565b91505061055e565b506060838101516001600160a01b03166107925760408401516001600160a01b03166106f8576040805160028082526060820183529091602083019080368337505085518251929350918391506000906106a3576106a3611b92565b6001600160a01b03929092166020928302919091018201528401518151829060019081106106d3576106d3611b92565b60200260200101906001600160a01b031690816001600160a01b031681525050610880565b6040805160038082526080820190925290602082016060803683375050855182519293509183915060009061072f5761072f611b92565b6001600160a01b039290921660209283029190910182015284015181518290600190811061075f5761075f611b92565b6001600160a01b03909216602092830291909101909101528360026020020151816002815181106106d3576106d3611b92565b60408051600480825260a082019092529060208201608080368337505085518251929350918391506000906107c9576107c9611b92565b6001600160a01b03929092166020928302919091018201528401518151829060019081106107f9576107f9611b92565b6001600160a01b039092166020928302919091019091015283600260200201518160028151811061082c5761082c611b92565b6001600160a01b039092166020928302919091019091015283600360200201518160038151811061085f5761085f611b92565b60200260200101906001600160a01b031690816001600160a01b0316815250505b939b939a50939850919650505050505050565b6000546001600160a01b031633146108c65760405162461bcd60e51b81526004016108bd90611c76565b60405180910390fd5b6108d0600061132d565b565b60606000846000815181106108e9576108e9611b92565b6020908102919091010151905061090b6001600160a01b03821633308a61137d565b60405163095ea7b360e01b81526001600160a01b0389811660048301526024820189905282169063095ea7b3906044016020604051808303816000875af115801561095a573d6000803e3d6000fd5b505050506040513d601f19601f8201168201806040525081019061097e9190611cab565b506040516338ed173960e01b81526001600160a01b038916906338ed1739906109b3908a908a908a908a908a90600401611ccd565b6000604051808303816000875af11580156109d2573d6000803e3d6000fd5b505050506040513d6000823e601f3d908101601f191682016040526109fa9190810190611bc1565b98975050505050505050565b6000546001600160a01b03163314610a305760405162461bcd60e51b81526004016108bd90611c76565b610a56610a456000546001600160a01b031690565b6001600160a01b03841690836113ee565b5050565b600060608160001981610a6b61168b565b600080610a788b8b610b68565b9150915060005b6001548110156106475760005b82811015610b55576000610aea60018481548110610aac57610aac611b92565b9060005260206000200160009054906101000a90046001600160a01b03168d878581518110610add57610add611b92565b602002602001015161024d565b905087811015610b425780975060018381548110610b0a57610b0a611b92565b60009182526020909120015485516001600160a01b039091169750859083908110610b3757610b37611b92565b602002602001015195505b5080610b4d81611c5d565b915050610a8c565b5080610b6081611c5d565b915050610a7f565b60028054606091600091610b7e90600190611d09565b610b889190611dfc565b610b93906001611e0b565b67ffffffffffffffff811115610bab57610bab6116d7565b604051908082528060200260200182016040528015610be457816020015b610bd161168b565b815260200190600190039081610bc95790505b50604080516080810182526001600160a01b0380881682528616602082015260009181018290526060810182905291935091508282610c2281611c5d565b935081518110610c3457610c34611b92565b602090810291909101015260015b600254811015610f3a5760005b600254811015610f2757856001600160a01b031660028381548110610c7657610c76611b92565b6000918252602090912001546001600160a01b031614801590610cc95750846001600160a01b031660028381548110610cb157610cb1611b92565b6000918252602090912001546001600160a01b031614155b8015610d055750856001600160a01b031660028281548110610ced57610ced611b92565b6000918252602090912001546001600160a01b031614155b8015610d415750846001600160a01b031660028281548110610d2957610d29611b92565b6000918252602090912001546001600160a01b031614155b8015610d9f575060028181548110610d5b57610d5b611b92565b600091825260209091200154600280546001600160a01b039092169184908110610d8757610d87611b92565b6000918252602090912001546001600160a01b031614155b15610f155760006001600160a01b031660028281548110610dc257610dc2611b92565b6000918252602090912001546001600160a01b031603610e66576040518060800160405280876001600160a01b03166001600160a01b0316815260200160028481548110610e1257610e12611b92565b60009182526020808320909101546001600160a01b0390811684528916908301526040909101528484610e4481611c5d565b955081518110610e5657610e56611b92565b6020026020010181905250610f15565b6040518060800160405280876001600160a01b03166001600160a01b0316815260200160028481548110610e9c57610e9c611b92565b600091825260209182902001546001600160a01b0316825260028054929091019184908110610ecd57610ecd611b92565b600091825260209182902001546001600160a01b03908116835288169101528484610ef781611c5d565b955081518110610f0957610f09611b92565b60200260200101819052505b80610f1f81611c5d565b915050610c4f565b5080610f3281611c5d565b915050610c42565b509250929050565b60006060600080610f5487878761053b565b5091509150600163c71a6d0660e01b8a8a8585604051602401610f7a9493929190611e23565b60408051601f198184030181529190526020810180516001600160e01b03166001600160e01b031990931692909217909152909450925050509550959350505050565b606081810151600091906001600160a01b031661110b5760408301516001600160a01b03166110715760408051600280825260608201835290916020830190803683375050845182519293509183915060009061101c5761101c611b92565b6001600160a01b039290921660209283029190910182015283015181518290600190811061104c5761104c611b92565b60200260200101906001600160a01b031690816001600160a01b0316815250506111f9565b604080516003808252608082019092529060208201606080368337505084518251929350918391506000906110a8576110a8611b92565b6001600160a01b03929092166020928302919091018201528301518151829060019081106110d8576110d8611b92565b6001600160a01b039092166020928302919091019091015282600260200201518160028151811061104c5761104c611b92565b60408051600480825260a0820190925290602082016080803683375050845182519293509183915060009061114257611142611b92565b6001600160a01b039290921660209283029190910182015283015181518290600190811061117257611172611b92565b6001600160a01b03909216602092830291909101909101528260026020020151816002815181106111a5576111a5611b92565b6001600160a01b03909216602092830291909101909101528260036020020151816003815181106111d8576111d8611b92565b60200260200101906001600160a01b031690816001600160a01b0316815250505b60405163d06ca61f60e01b81526001600160a01b0386169063d06ca61f906112279087908590600401611ba8565b600060405180830381865afa92505050801561126557506040513d6000823e601f3d908101601f191682016040526112629190810190611bc1565b60015b611273576000915050610524565b81518190611282906001611423565b8151811061051757610517611b92565b6000546001600160a01b031633146112bc5760405162461bcd60e51b81526004016108bd90611c76565b6001600160a01b0381166113215760405162461bcd60e51b815260206004820152602660248201527f4f776e61626c653a206e6577206f776e657220697320746865207a65726f206160448201526564647265737360d01b60648201526084016108bd565b61132a8161132d565b50565b600080546001600160a01b038381166001600160a01b0319831681178455604051919092169283917f8be0079c531659141344cd1fd0a4f28419497f9722a3daafe3b4186f6b6457e09190a35050565b6040516001600160a01b03808516602483015283166044820152606481018290526113e89085906323b872dd60e01b906084015b60408051601f198184030181529190526020810180516001600160e01b03166001600160e01b031990931692909217909152611438565b50505050565b6040516001600160a01b03831660248201526044810182905261141e90849063a9059cbb60e01b906064016113b1565b505050565b600061142f8284611d09565b90505b92915050565b600061148d826040518060400160405280602081526020017f5361666545524332303a206c6f772d6c6576656c2063616c6c206661696c6564815250856001600160a01b031661150a9092919063ffffffff16565b80519091501561141e57808060200190518101906114ab9190611cab565b61141e5760405162461bcd60e51b815260206004820152602a60248201527f5361666545524332303a204552433230206f7065726174696f6e20646964206e6044820152691bdd081cdd58d8d9595960b21b60648201526084016108bd565b60606115198484600085611521565b949350505050565b6060824710156115825760405162461bcd60e51b815260206004820152602660248201527f416464726573733a20696e73756666696369656e742062616c616e636520666f6044820152651c8818d85b1b60d21b60648201526084016108bd565b6001600160a01b0385163b6115d95760405162461bcd60e51b815260206004820152601d60248201527f416464726573733a2063616c6c20746f206e6f6e2d636f6e747261637400000060448201526064016108bd565b600080866001600160a01b031685876040516115f59190611e5a565b60006040518083038185875af1925050503d8060008114611632576040519150601f19603f3d011682016040523d82523d6000602084013e611637565b606091505b5091509150611647828286611652565b979650505050505050565b60608315611661575081610524565b8251156116715782518084602001fd5b8160405162461bcd60e51b81526004016108bd9190611e76565b60405180608001604052806004906020820280368337509192915050565b6000602082840312156116bb57600080fd5b5035919050565b6001600160a01b038116811461132a57600080fd5b634e487b7160e01b600052604160045260246000fd5b604051601f8201601f1916810167ffffffffffffffff81118282101715611716576117166116d7565b604052919050565b8035611729816116c2565b919050565b600080600060c0848603121561174357600080fd5b833561174e816116c2565b92506020848101359250605f8501861361176757600080fd5b6040516080810181811067ffffffffffffffff8211171561178a5761178a6116d7565b6040528060c087018881111561179f57600080fd5b604088015b818110156117c45780356117b7816116c2565b83529184019184016117a4565b50505080925050509250925092565b6000806000606084860312156117e857600080fd5b83356117f3816116c2565b92506020840135611803816116c2565b929592945050506040919091013590565b600081518084526020808501945080840160005b8381101561184d5781516001600160a01b031687529582019590820190600101611828565b509495945050505050565b6001600160a01b038416815260606020820181905260009061187c90830185611814565b9050826040830152949350505050565b600067ffffffffffffffff8211156118a6576118a66116d7565b5060051b60200190565b60008060008060008060c087890312156118c957600080fd5b86356118d4816116c2565b9550602087810135955060408801359450606088013567ffffffffffffffff8111156118ff57600080fd5b8801601f81018a1361191057600080fd5b803561192361191e8261188c565b6116ed565b81815260059190911b8201830190838101908c83111561194257600080fd5b928401925b8284101561196957833561195a816116c2565b82529284019290840190611947565b809750505050505061197d6080880161171e565b915060a087013590509295509295509295565b6020808252825182820181905260009190848201906040850190845b818110156119c8578351835292840192918401916001016119ac565b50909695505050505050565b600080604083850312156119e757600080fd5b82356119f2816116c2565b946020939093013593505050565b60008060408385031215611a1357600080fd5b8235611a1e816116c2565b91506020830135611a2e816116c2565b809150509250929050565b60408082528351908201819052600090602090606084019082870184805b83811015611aa057825185835b6004811015611a8a5782516001600160a01b031682529188019190880190600101611a64565b5050506080949094019391850191600101611a57565b5050505092019290925292915050565b600080600080600060a08688031215611ac857600080fd5b85359450602086013593506040860135611ae1816116c2565b92506060860135611af1816116c2565b949793965091946080013592915050565b60005b83811015611b1d578181015183820152602001611b05565b838111156113e85750506000910152565b60008151808452611b46816020860160208601611b02565b601f01601f19169290920160200192915050565b82151581526040602082015260006115196040830184611b2e565b600060208284031215611b8757600080fd5b8135610524816116c2565b634e487b7160e01b600052603260045260246000fd5b8281526040602082015260006115196040830184611814565b60006020808385031215611bd457600080fd5b825167ffffffffffffffff811115611beb57600080fd5b8301601f81018513611bfc57600080fd5b8051611c0a61191e8261188c565b81815260059190911b82018301908381019087831115611c2957600080fd5b928401925b8284101561164757835182529284019290840190611c2e565b634e487b7160e01b600052601160045260246000fd5b600060018201611c6f57611c6f611c47565b5060010190565b6020808252818101527f4f776e61626c653a2063616c6c6572206973206e6f7420746865206f776e6572604082015260600190565b600060208284031215611cbd57600080fd5b8151801515811461052457600080fd5b85815284602082015260a060408201526000611cec60a0830186611814565b6001600160a01b0394909416606083015250608001529392505050565b600082821015611d1b57611d1b611c47565b500390565b600181815b80851115610f3a578160001904821115611d4157611d41611c47565b80851615611d4e57918102915b93841c9390800290611d25565b600082611d6a57506001611432565b81611d7757506000611432565b8160018114611d8d5760028114611d9757611db3565b6001915050611432565b60ff841115611da857611da8611c47565b50506001821b611432565b5060208310610133831016604e8410600b8410161715611dd6575081810a611432565b611de08383611d20565b8060001904821115611df457611df4611c47565b029392505050565b600061142f60ff841683611d5b565b60008219821115611e1e57611e1e611c47565b500190565b84815283602082015260018060a01b0383166040820152608060608201526000611e506080830184611814565b9695505050505050565b60008251611e6c818460208701611b02565b9190910192915050565b60208152600061142f6020830184611b2e56fea26469706673582212209a7fbb4b79e230c5070bb3e39cd723e0a6b5c92e2009998610b3617002e3067464736f6c634300080d0033",
  "linkReferences": {},
  "deployedLinkReferences": {}
}